{
	"contracts/DeploymentGuardian.sol": {
		"DeploymentGuardian": {
			"abi": [
				{
					"inputs": [],
					"stateMutability": "nonpayable",
					"type": "constructor"
				},
				{
					"anonymous": false,
					"inputs": [
						{
							"indexed": true,
							"internalType": "address",
							"name": "who",
							"type": "address"
						},
						{
							"indexed": false,
							"internalType": "bool",
							"name": "ok",
							"type": "bool"
						}
					],
					"name": "ApprovedInitializerSet",
					"type": "event"
				},
				{
					"anonymous": false,
					"inputs": [
						{
							"indexed": true,
							"internalType": "address",
							"name": "previousOwner",
							"type": "address"
						},
						{
							"indexed": true,
							"internalType": "address",
							"name": "newOwner",
							"type": "address"
						}
					],
					"name": "OwnershipTransferred",
					"type": "event"
				},
				{
					"inputs": [
						{
							"internalType": "address",
							"name": "",
							"type": "address"
						}
					],
					"name": "approvedInitializers",
					"outputs": [
						{
							"internalType": "bool",
							"name": "",
							"type": "bool"
						}
					],
					"stateMutability": "view",
					"type": "function"
				},
				{
					"inputs": [
						{
							"internalType": "address",
							"name": "who",
							"type": "address"
						}
					],
					"name": "isApproved",
					"outputs": [
						{
							"internalType": "bool",
							"name": "",
							"type": "bool"
						}
					],
					"stateMutability": "view",
					"type": "function"
				},
				{
					"inputs": [],
					"name": "owner",
					"outputs": [
						{
							"internalType": "address",
							"name": "",
							"type": "address"
						}
					],
					"stateMutability": "view",
					"type": "function"
				},
				{
					"inputs": [
						{
							"internalType": "address",
							"name": "who",
							"type": "address"
						},
						{
							"internalType": "bool",
							"name": "ok",
							"type": "bool"
						}
					],
					"name": "setApproved",
					"outputs": [],
					"stateMutability": "nonpayable",
					"type": "function"
				},
				{
					"inputs": [
						{
							"internalType": "address",
							"name": "newOwner",
							"type": "address"
						}
					],
					"name": "transferOwnership",
					"outputs": [],
					"stateMutability": "nonpayable",
					"type": "function"
				}
			],
			"devdoc": {
				"details": "Educational POC - maintains an allowlist of approved initializers",
				"kind": "dev",
				"methods": {
					"isApproved(address)": {
						"params": {
							"who": "Address to check"
						},
						"returns": {
							"_0": "bool True if approved, false otherwise"
						}
					},
					"setApproved(address,bool)": {
						"details": "Protects against zero address to prevent mistakes",
						"params": {
							"ok": "True to approve, false to revoke",
							"who": "Address to approve or revoke"
						}
					},
					"transferOwnership(address)": {
						"details": "Added for completeness, protects against zero address",
						"params": {
							"newOwner": "Address of the new owner"
						}
					}
				},
				"title": "DeploymentGuardian",
				"version": 1
			},
			"evm": {
				"assembly": "    /* \"contracts/DeploymentGuardian.sol\":263:1989  contract DeploymentGuardian {... */\n  mstore(0x40, 0x80)\n    /* \"contracts/DeploymentGuardian.sol\":706:814  constructor() {... */\n  callvalue\n  dup1\n  iszero\n  tag_1\n  jumpi\n  0x00\n  dup1\n  revert\ntag_1:\n  pop\n    /* \"contracts/DeploymentGuardian.sol\":738:748  msg.sender */\n  caller\n    /* \"contracts/DeploymentGuardian.sol\":730:735  owner */\n  0x00\n  dup1\n    /* \"contracts/DeploymentGuardian.sol\":730:748  owner = msg.sender */\n  0x0100\n  exp\n  dup2\n  sload\n  dup2\n  0xffffffffffffffffffffffffffffffffffffffff\n  mul\n  not\n  and\n  swap1\n  dup4\n  0xffffffffffffffffffffffffffffffffffffffff\n  and\n  mul\n  or\n  swap1\n  sstore\n  pop\n    /* \"contracts/DeploymentGuardian.sol\":796:806  msg.sender */\n  caller\n    /* \"contracts/DeploymentGuardian.sol\":763:807  OwnershipTransferred(address(0), msg.sender) */\n  0xffffffffffffffffffffffffffffffffffffffff\n  and\n    /* \"contracts/DeploymentGuardian.sol\":792:793  0 */\n  0x00\n    /* \"contracts/DeploymentGuardian.sol\":763:807  OwnershipTransferred(address(0), msg.sender) */\n  0xffffffffffffffffffffffffffffffffffffffff\n  and\n  0x8be0079c531659141344cd1fd0a4f28419497f9722a3daafe3b4186f6b6457e0\n  mload(0x40)\n  mload(0x40)\n  dup1\n  swap2\n  sub\n  swap1\n  log3\n    /* \"contracts/DeploymentGuardian.sol\":263:1989  contract DeploymentGuardian {... */\n  dataSize(sub_0)\n  dup1\n  dataOffset(sub_0)\n  0x00\n  codecopy\n  0x00\n  return\nstop\n\nsub_0: assembly {\n        /* \"contracts/DeploymentGuardian.sol\":263:1989  contract DeploymentGuardian {... */\n      mstore(0x40, 0x80)\n      callvalue\n      dup1\n      iszero\n      tag_1\n      jumpi\n      0x00\n      dup1\n      revert\n    tag_1:\n      pop\n      jumpi(tag_2, lt(calldatasize, 0x04))\n      shr(0xe0, calldataload(0x00))\n      dup1\n      0x39323400\n      eq\n      tag_3\n      jumpi\n      dup1\n      0x673448dd\n      eq\n      tag_4\n      jumpi\n      dup1\n      0x84cfb680\n      eq\n      tag_5\n      jumpi\n      dup1\n      0x8da5cb5b\n      eq\n      tag_6\n      jumpi\n      dup1\n      0xf2fde38b\n      eq\n      tag_7\n      jumpi\n    tag_2:\n      0x00\n      dup1\n      revert\n        /* \"contracts/DeploymentGuardian.sol\":347:399  mapping(address => bool) public approvedInitializers */\n    tag_3:\n      tag_8\n      0x04\n      dup1\n      calldatasize\n      sub\n      dup2\n      add\n      swap1\n      tag_9\n      swap2\n      swap1\n      tag_10\n      jump\t// in\n    tag_9:\n      tag_11\n      jump\t// in\n    tag_8:\n      mload(0x40)\n      tag_12\n      swap2\n      swap1\n      tag_13\n      jump\t// in\n    tag_12:\n      mload(0x40)\n      dup1\n      swap2\n      sub\n      swap1\n      return\n        /* \"contracts/DeploymentGuardian.sol\":1446:1557  function isApproved(address who) external view returns (bool) {... */\n    tag_4:\n      tag_14\n      0x04\n      dup1\n      calldatasize\n      sub\n      dup2\n      add\n      swap1\n      tag_15\n      swap2\n      swap1\n      tag_10\n      jump\t// in\n    tag_15:\n      tag_16\n      jump\t// in\n    tag_14:\n      mload(0x40)\n      tag_17\n      swap2\n      swap1\n      tag_13\n      jump\t// in\n    tag_17:\n      mload(0x40)\n      dup1\n      swap2\n      sub\n      swap1\n      return\n        /* \"contracts/DeploymentGuardian.sol\":1057:1264  function setApproved(address who, bool ok) external onlyOwner {... */\n    tag_5:\n      tag_18\n      0x04\n      dup1\n      calldatasize\n      sub\n      dup2\n      add\n      swap1\n      tag_19\n      swap2\n      swap1\n      tag_20\n      jump\t// in\n    tag_19:\n      tag_21\n      jump\t// in\n    tag_18:\n      stop\n        /* \"contracts/DeploymentGuardian.sol\":321:341  address public owner */\n    tag_6:\n      tag_22\n      tag_23\n      jump\t// in\n    tag_22:\n      mload(0x40)\n      tag_24\n      swap2\n      swap1\n      tag_25\n      jump\t// in\n    tag_24:\n      mload(0x40)\n      dup1\n      swap2\n      sub\n      swap1\n      return\n        /* \"contracts/DeploymentGuardian.sol\":1744:1987  function transferOwnership(address newOwner) external onlyOwner {... */\n    tag_7:\n      tag_26\n      0x04\n      dup1\n      calldatasize\n      sub\n      dup2\n      add\n      swap1\n      tag_27\n      swap2\n      swap1\n      tag_10\n      jump\t// in\n    tag_27:\n      tag_28\n      jump\t// in\n    tag_26:\n      stop\n        /* \"contracts/DeploymentGuardian.sol\":347:399  mapping(address => bool) public approvedInitializers */\n    tag_11:\n      mstore(0x20, 0x01)\n      dup1\n      0x00\n      mstore\n      keccak256(0x00, 0x40)\n      0x00\n      swap2\n      pop\n      sload\n      swap1\n      0x0100\n      exp\n      swap1\n      div\n      0xff\n      and\n      dup2\n      jump\t// out\n        /* \"contracts/DeploymentGuardian.sol\":1446:1557  function isApproved(address who) external view returns (bool) {... */\n    tag_16:\n        /* \"contracts/DeploymentGuardian.sol\":1502:1506  bool */\n      0x00\n        /* \"contracts/DeploymentGuardian.sol\":1525:1545  approvedInitializers */\n      0x01\n        /* \"contracts/DeploymentGuardian.sol\":1525:1550  approvedInitializers[who] */\n      0x00\n        /* \"contracts/DeploymentGuardian.sol\":1546:1549  who */\n      dup4\n        /* \"contracts/DeploymentGuardian.sol\":1525:1550  approvedInitializers[who] */\n      0xffffffffffffffffffffffffffffffffffffffff\n      and\n      0xffffffffffffffffffffffffffffffffffffffff\n      and\n      dup2\n      mstore\n      0x20\n      add\n      swap1\n      dup2\n      mstore\n      0x20\n      add\n      0x00\n      keccak256\n      0x00\n      swap1\n      sload\n      swap1\n      0x0100\n      exp\n      swap1\n      div\n      0xff\n      and\n        /* \"contracts/DeploymentGuardian.sol\":1518:1550  return approvedInitializers[who] */\n      swap1\n      pop\n        /* \"contracts/DeploymentGuardian.sol\":1446:1557  function isApproved(address who) external view returns (bool) {... */\n      swap2\n      swap1\n      pop\n      jump\t// out\n        /* \"contracts/DeploymentGuardian.sol\":1057:1264  function setApproved(address who, bool ok) external onlyOwner {... */\n    tag_21:\n        /* \"contracts/DeploymentGuardian.sol\":644:649  owner */\n      0x00\n      dup1\n      sload\n      swap1\n      0x0100\n      exp\n      swap1\n      div\n      0xffffffffffffffffffffffffffffffffffffffff\n      and\n        /* \"contracts/DeploymentGuardian.sol\":630:649  msg.sender == owner */\n      0xffffffffffffffffffffffffffffffffffffffff\n      and\n        /* \"contracts/DeploymentGuardian.sol\":630:640  msg.sender */\n      caller\n        /* \"contracts/DeploymentGuardian.sol\":630:649  msg.sender == owner */\n      0xffffffffffffffffffffffffffffffffffffffff\n      and\n      eq\n        /* \"contracts/DeploymentGuardian.sol\":622:663  require(msg.sender == owner, \"NOT_OWNER\") */\n      tag_31\n      jumpi\n      mload(0x40)\n      0x08c379a000000000000000000000000000000000000000000000000000000000\n      dup2\n      mstore\n      0x04\n      add\n      tag_32\n      swap1\n      tag_33\n      jump\t// in\n    tag_32:\n      mload(0x40)\n      dup1\n      swap2\n      sub\n      swap1\n      revert\n    tag_31:\n        /* \"contracts/DeploymentGuardian.sol\":1152:1153  0 */\n      0x00\n        /* \"contracts/DeploymentGuardian.sol\":1137:1154  who != address(0) */\n      0xffffffffffffffffffffffffffffffffffffffff\n      and\n        /* \"contracts/DeploymentGuardian.sol\":1137:1140  who */\n      dup3\n        /* \"contracts/DeploymentGuardian.sol\":1137:1154  who != address(0) */\n      0xffffffffffffffffffffffffffffffffffffffff\n      and\n      sub\n        /* \"contracts/DeploymentGuardian.sol\":1129:1171  require(who != address(0), \"ZERO_ADDRESS\") */\n      tag_35\n      jumpi\n      mload(0x40)\n      0x08c379a000000000000000000000000000000000000000000000000000000000\n      dup2\n      mstore\n      0x04\n      add\n      tag_36\n      swap1\n      tag_37\n      jump\t// in\n    tag_36:\n      mload(0x40)\n      dup1\n      swap2\n      sub\n      swap1\n      revert\n    tag_35:\n        /* \"contracts/DeploymentGuardian.sol\":1209:1211  ok */\n      dup1\n        /* \"contracts/DeploymentGuardian.sol\":1181:1201  approvedInitializers */\n      0x01\n        /* \"contracts/DeploymentGuardian.sol\":1181:1206  approvedInitializers[who] */\n      0x00\n        /* \"contracts/DeploymentGuardian.sol\":1202:1205  who */\n      dup5\n        /* \"contracts/DeploymentGuardian.sol\":1181:1206  approvedInitializers[who] */\n      0xffffffffffffffffffffffffffffffffffffffff\n      and\n      0xffffffffffffffffffffffffffffffffffffffff\n      and\n      dup2\n      mstore\n      0x20\n      add\n      swap1\n      dup2\n      mstore\n      0x20\n      add\n      0x00\n      keccak256\n      0x00\n        /* \"contracts/DeploymentGuardian.sol\":1181:1211  approvedInitializers[who] = ok */\n      0x0100\n      exp\n      dup2\n      sload\n      dup2\n      0xff\n      mul\n      not\n      and\n      swap1\n      dup4\n      iszero\n      iszero\n      mul\n      or\n      swap1\n      sstore\n      pop\n        /* \"contracts/DeploymentGuardian.sol\":1249:1252  who */\n      dup2\n        /* \"contracts/DeploymentGuardian.sol\":1226:1257  ApprovedInitializerSet(who, ok) */\n      0xffffffffffffffffffffffffffffffffffffffff\n      and\n      0x989eeded2e8e017c9284380427d92c241b1c59a5a40f21939865169142526579\n        /* \"contracts/DeploymentGuardian.sol\":1254:1256  ok */\n      dup3\n        /* \"contracts/DeploymentGuardian.sol\":1226:1257  ApprovedInitializerSet(who, ok) */\n      mload(0x40)\n      tag_38\n      swap2\n      swap1\n      tag_13\n      jump\t// in\n    tag_38:\n      mload(0x40)\n      dup1\n      swap2\n      sub\n      swap1\n      log2\n        /* \"contracts/DeploymentGuardian.sol\":1057:1264  function setApproved(address who, bool ok) external onlyOwner {... */\n      pop\n      pop\n      jump\t// out\n        /* \"contracts/DeploymentGuardian.sol\":321:341  address public owner */\n    tag_23:\n      0x00\n      dup1\n      sload\n      swap1\n      0x0100\n      exp\n      swap1\n      div\n      0xffffffffffffffffffffffffffffffffffffffff\n      and\n      dup2\n      jump\t// out\n        /* \"contracts/DeploymentGuardian.sol\":1744:1987  function transferOwnership(address newOwner) external onlyOwner {... */\n    tag_28:\n        /* \"contracts/DeploymentGuardian.sol\":644:649  owner */\n      0x00\n      dup1\n      sload\n      swap1\n      0x0100\n      exp\n      swap1\n      div\n      0xffffffffffffffffffffffffffffffffffffffff\n      and\n        /* \"contracts/DeploymentGuardian.sol\":630:649  msg.sender == owner */\n      0xffffffffffffffffffffffffffffffffffffffff\n      and\n        /* \"contracts/DeploymentGuardian.sol\":630:640  msg.sender */\n      caller\n        /* \"contracts/DeploymentGuardian.sol\":630:649  msg.sender == owner */\n      0xffffffffffffffffffffffffffffffffffffffff\n      and\n      eq\n        /* \"contracts/DeploymentGuardian.sol\":622:663  require(msg.sender == owner, \"NOT_OWNER\") */\n      tag_40\n      jumpi\n      mload(0x40)\n      0x08c379a000000000000000000000000000000000000000000000000000000000\n      dup2\n      mstore\n      0x04\n      add\n      tag_41\n      swap1\n      tag_33\n      jump\t// in\n    tag_41:\n      mload(0x40)\n      dup1\n      swap2\n      sub\n      swap1\n      revert\n    tag_40:\n        /* \"contracts/DeploymentGuardian.sol\":1846:1847  0 */\n      0x00\n        /* \"contracts/DeploymentGuardian.sol\":1826:1848  newOwner != address(0) */\n      0xffffffffffffffffffffffffffffffffffffffff\n      and\n        /* \"contracts/DeploymentGuardian.sol\":1826:1834  newOwner */\n      dup2\n        /* \"contracts/DeploymentGuardian.sol\":1826:1848  newOwner != address(0) */\n      0xffffffffffffffffffffffffffffffffffffffff\n      and\n      sub\n        /* \"contracts/DeploymentGuardian.sol\":1818:1865  require(newOwner != address(0), \"ZERO_ADDRESS\") */\n      tag_43\n      jumpi\n      mload(0x40)\n      0x08c379a000000000000000000000000000000000000000000000000000000000\n      dup2\n      mstore\n      0x04\n      add\n      tag_44\n      swap1\n      tag_37\n      jump\t// in\n    tag_44:\n      mload(0x40)\n      dup1\n      swap2\n      sub\n      swap1\n      revert\n    tag_43:\n        /* \"contracts/DeploymentGuardian.sol\":1875:1891  address oldOwner */\n      0x00\n        /* \"contracts/DeploymentGuardian.sol\":1894:1899  owner */\n      dup1\n      0x00\n      swap1\n      sload\n      swap1\n      0x0100\n      exp\n      swap1\n      div\n      0xffffffffffffffffffffffffffffffffffffffff\n      and\n        /* \"contracts/DeploymentGuardian.sol\":1875:1899  address oldOwner = owner */\n      swap1\n      pop\n        /* \"contracts/DeploymentGuardian.sol\":1917:1925  newOwner */\n      dup2\n        /* \"contracts/DeploymentGuardian.sol\":1909:1914  owner */\n      0x00\n      dup1\n        /* \"contracts/DeploymentGuardian.sol\":1909:1925  owner = newOwner */\n      0x0100\n      exp\n      dup2\n      sload\n      dup2\n      0xffffffffffffffffffffffffffffffffffffffff\n      mul\n      not\n      and\n      swap1\n      dup4\n      0xffffffffffffffffffffffffffffffffffffffff\n      and\n      mul\n      or\n      swap1\n      sstore\n      pop\n        /* \"contracts/DeploymentGuardian.sol\":1971:1979  newOwner */\n      dup2\n        /* \"contracts/DeploymentGuardian.sol\":1940:1980  OwnershipTransferred(oldOwner, newOwner) */\n      0xffffffffffffffffffffffffffffffffffffffff\n      and\n        /* \"contracts/DeploymentGuardian.sol\":1961:1969  oldOwner */\n      dup2\n        /* \"contracts/DeploymentGuardian.sol\":1940:1980  OwnershipTransferred(oldOwner, newOwner) */\n      0xffffffffffffffffffffffffffffffffffffffff\n      and\n      0x8be0079c531659141344cd1fd0a4f28419497f9722a3daafe3b4186f6b6457e0\n      mload(0x40)\n      mload(0x40)\n      dup1\n      swap2\n      sub\n      swap1\n      log3\n        /* \"contracts/DeploymentGuardian.sol\":1808:1987  {... */\n      pop\n        /* \"contracts/DeploymentGuardian.sol\":1744:1987  function transferOwnership(address newOwner) external onlyOwner {... */\n      pop\n      jump\t// out\n        /* \"#utility.yul\":88:205   */\n    tag_46:\n        /* \"#utility.yul\":197:198   */\n      0x00\n        /* \"#utility.yul\":194:195   */\n      dup1\n        /* \"#utility.yul\":187:199   */\n      revert\n        /* \"#utility.yul\":334:460   */\n    tag_48:\n        /* \"#utility.yul\":371:378   */\n      0x00\n        /* \"#utility.yul\":411:453   */\n      0xffffffffffffffffffffffffffffffffffffffff\n        /* \"#utility.yul\":404:409   */\n      dup3\n        /* \"#utility.yul\":400:454   */\n      and\n        /* \"#utility.yul\":389:454   */\n      swap1\n      pop\n        /* \"#utility.yul\":334:460   */\n      swap2\n      swap1\n      pop\n      jump\t// out\n        /* \"#utility.yul\":466:562   */\n    tag_49:\n        /* \"#utility.yul\":503:510   */\n      0x00\n        /* \"#utility.yul\":532:556   */\n      tag_68\n        /* \"#utility.yul\":550:555   */\n      dup3\n        /* \"#utility.yul\":532:556   */\n      tag_48\n      jump\t// in\n    tag_68:\n        /* \"#utility.yul\":521:556   */\n      swap1\n      pop\n        /* \"#utility.yul\":466:562   */\n      swap2\n      swap1\n      pop\n      jump\t// out\n        /* \"#utility.yul\":568:690   */\n    tag_50:\n        /* \"#utility.yul\":641:665   */\n      tag_70\n        /* \"#utility.yul\":659:664   */\n      dup2\n        /* \"#utility.yul\":641:665   */\n      tag_49\n      jump\t// in\n    tag_70:\n        /* \"#utility.yul\":634:639   */\n      dup2\n        /* \"#utility.yul\":631:666   */\n      eq\n        /* \"#utility.yul\":621:684   */\n      tag_71\n      jumpi\n        /* \"#utility.yul\":680:681   */\n      0x00\n        /* \"#utility.yul\":677:678   */\n      dup1\n        /* \"#utility.yul\":670:682   */\n      revert\n        /* \"#utility.yul\":621:684   */\n    tag_71:\n        /* \"#utility.yul\":568:690   */\n      pop\n      jump\t// out\n        /* \"#utility.yul\":696:835   */\n    tag_51:\n        /* \"#utility.yul\":742:747   */\n      0x00\n        /* \"#utility.yul\":780:786   */\n      dup2\n        /* \"#utility.yul\":767:787   */\n      calldataload\n        /* \"#utility.yul\":758:787   */\n      swap1\n      pop\n        /* \"#utility.yul\":796:829   */\n      tag_73\n        /* \"#utility.yul\":823:828   */\n      dup2\n        /* \"#utility.yul\":796:829   */\n      tag_50\n      jump\t// in\n    tag_73:\n        /* \"#utility.yul\":696:835   */\n      swap3\n      swap2\n      pop\n      pop\n      jump\t// out\n        /* \"#utility.yul\":841:1170   */\n    tag_10:\n        /* \"#utility.yul\":900:906   */\n      0x00\n        /* \"#utility.yul\":949:951   */\n      0x20\n        /* \"#utility.yul\":937:946   */\n      dup3\n        /* \"#utility.yul\":928:935   */\n      dup5\n        /* \"#utility.yul\":924:947   */\n      sub\n        /* \"#utility.yul\":920:952   */\n      slt\n        /* \"#utility.yul\":917:1036   */\n      iszero\n      tag_75\n      jumpi\n        /* \"#utility.yul\":955:1034   */\n      tag_76\n      tag_46\n      jump\t// in\n    tag_76:\n        /* \"#utility.yul\":917:1036   */\n    tag_75:\n        /* \"#utility.yul\":1075:1076   */\n      0x00\n        /* \"#utility.yul\":1100:1153   */\n      tag_77\n        /* \"#utility.yul\":1145:1152   */\n      dup5\n        /* \"#utility.yul\":1136:1142   */\n      dup3\n        /* \"#utility.yul\":1125:1134   */\n      dup6\n        /* \"#utility.yul\":1121:1143   */\n      add\n        /* \"#utility.yul\":1100:1153   */\n      tag_51\n      jump\t// in\n    tag_77:\n        /* \"#utility.yul\":1090:1153   */\n      swap2\n      pop\n        /* \"#utility.yul\":1046:1163   */\n      pop\n        /* \"#utility.yul\":841:1170   */\n      swap3\n      swap2\n      pop\n      pop\n      jump\t// out\n        /* \"#utility.yul\":1176:1266   */\n    tag_52:\n        /* \"#utility.yul\":1210:1217   */\n      0x00\n        /* \"#utility.yul\":1253:1258   */\n      dup2\n        /* \"#utility.yul\":1246:1259   */\n      iszero\n        /* \"#utility.yul\":1239:1260   */\n      iszero\n        /* \"#utility.yul\":1228:1260   */\n      swap1\n      pop\n        /* \"#utility.yul\":1176:1266   */\n      swap2\n      swap1\n      pop\n      jump\t// out\n        /* \"#utility.yul\":1272:1381   */\n    tag_53:\n        /* \"#utility.yul\":1353:1374   */\n      tag_80\n        /* \"#utility.yul\":1368:1373   */\n      dup2\n        /* \"#utility.yul\":1353:1374   */\n      tag_52\n      jump\t// in\n    tag_80:\n        /* \"#utility.yul\":1348:1351   */\n      dup3\n        /* \"#utility.yul\":1341:1375   */\n      mstore\n        /* \"#utility.yul\":1272:1381   */\n      pop\n      pop\n      jump\t// out\n        /* \"#utility.yul\":1387:1597   */\n    tag_13:\n        /* \"#utility.yul\":1474:1478   */\n      0x00\n        /* \"#utility.yul\":1512:1514   */\n      0x20\n        /* \"#utility.yul\":1501:1510   */\n      dup3\n        /* \"#utility.yul\":1497:1515   */\n      add\n        /* \"#utility.yul\":1489:1515   */\n      swap1\n      pop\n        /* \"#utility.yul\":1525:1590   */\n      tag_82\n        /* \"#utility.yul\":1587:1588   */\n      0x00\n        /* \"#utility.yul\":1576:1585   */\n      dup4\n        /* \"#utility.yul\":1572:1589   */\n      add\n        /* \"#utility.yul\":1563:1569   */\n      dup5\n        /* \"#utility.yul\":1525:1590   */\n      tag_53\n      jump\t// in\n    tag_82:\n        /* \"#utility.yul\":1387:1597   */\n      swap3\n      swap2\n      pop\n      pop\n      jump\t// out\n        /* \"#utility.yul\":1603:1719   */\n    tag_54:\n        /* \"#utility.yul\":1673:1694   */\n      tag_84\n        /* \"#utility.yul\":1688:1693   */\n      dup2\n        /* \"#utility.yul\":1673:1694   */\n      tag_52\n      jump\t// in\n    tag_84:\n        /* \"#utility.yul\":1666:1671   */\n      dup2\n        /* \"#utility.yul\":1663:1695   */\n      eq\n        /* \"#utility.yul\":1653:1713   */\n      tag_85\n      jumpi\n        /* \"#utility.yul\":1709:1710   */\n      0x00\n        /* \"#utility.yul\":1706:1707   */\n      dup1\n        /* \"#utility.yul\":1699:1711   */\n      revert\n        /* \"#utility.yul\":1653:1713   */\n    tag_85:\n        /* \"#utility.yul\":1603:1719   */\n      pop\n      jump\t// out\n        /* \"#utility.yul\":1725:1858   */\n    tag_55:\n        /* \"#utility.yul\":1768:1773   */\n      0x00\n        /* \"#utility.yul\":1806:1812   */\n      dup2\n        /* \"#utility.yul\":1793:1813   */\n      calldataload\n        /* \"#utility.yul\":1784:1813   */\n      swap1\n      pop\n        /* \"#utility.yul\":1822:1852   */\n      tag_87\n        /* \"#utility.yul\":1846:1851   */\n      dup2\n        /* \"#utility.yul\":1822:1852   */\n      tag_54\n      jump\t// in\n    tag_87:\n        /* \"#utility.yul\":1725:1858   */\n      swap3\n      swap2\n      pop\n      pop\n      jump\t// out\n        /* \"#utility.yul\":1864:2332   */\n    tag_20:\n        /* \"#utility.yul\":1929:1935   */\n      0x00\n        /* \"#utility.yul\":1937:1943   */\n      dup1\n        /* \"#utility.yul\":1986:1988   */\n      0x40\n        /* \"#utility.yul\":1974:1983   */\n      dup4\n        /* \"#utility.yul\":1965:1972   */\n      dup6\n        /* \"#utility.yul\":1961:1984   */\n      sub\n        /* \"#utility.yul\":1957:1989   */\n      slt\n        /* \"#utility.yul\":1954:2073   */\n      iszero\n      tag_89\n      jumpi\n        /* \"#utility.yul\":1992:2071   */\n      tag_90\n      tag_46\n      jump\t// in\n    tag_90:\n        /* \"#utility.yul\":1954:2073   */\n    tag_89:\n        /* \"#utility.yul\":2112:2113   */\n      0x00\n        /* \"#utility.yul\":2137:2190   */\n      tag_91\n        /* \"#utility.yul\":2182:2189   */\n      dup6\n        /* \"#utility.yul\":2173:2179   */\n      dup3\n        /* \"#utility.yul\":2162:2171   */\n      dup7\n        /* \"#utility.yul\":2158:2180   */\n      add\n        /* \"#utility.yul\":2137:2190   */\n      tag_51\n      jump\t// in\n    tag_91:\n        /* \"#utility.yul\":2127:2190   */\n      swap3\n      pop\n        /* \"#utility.yul\":2083:2200   */\n      pop\n        /* \"#utility.yul\":2239:2241   */\n      0x20\n        /* \"#utility.yul\":2265:2315   */\n      tag_92\n        /* \"#utility.yul\":2307:2314   */\n      dup6\n        /* \"#utility.yul\":2298:2304   */\n      dup3\n        /* \"#utility.yul\":2287:2296   */\n      dup7\n        /* \"#utility.yul\":2283:2305   */\n      add\n        /* \"#utility.yul\":2265:2315   */\n      tag_55\n      jump\t// in\n    tag_92:\n        /* \"#utility.yul\":2255:2315   */\n      swap2\n      pop\n        /* \"#utility.yul\":2210:2325   */\n      pop\n        /* \"#utility.yul\":1864:2332   */\n      swap3\n      pop\n      swap3\n      swap1\n      pop\n      jump\t// out\n        /* \"#utility.yul\":2338:2456   */\n    tag_56:\n        /* \"#utility.yul\":2425:2449   */\n      tag_94\n        /* \"#utility.yul\":2443:2448   */\n      dup2\n        /* \"#utility.yul\":2425:2449   */\n      tag_49\n      jump\t// in\n    tag_94:\n        /* \"#utility.yul\":2420:2423   */\n      dup3\n        /* \"#utility.yul\":2413:2450   */\n      mstore\n        /* \"#utility.yul\":2338:2456   */\n      pop\n      pop\n      jump\t// out\n        /* \"#utility.yul\":2462:2684   */\n    tag_25:\n        /* \"#utility.yul\":2555:2559   */\n      0x00\n        /* \"#utility.yul\":2593:2595   */\n      0x20\n        /* \"#utility.yul\":2582:2591   */\n      dup3\n        /* \"#utility.yul\":2578:2596   */\n      add\n        /* \"#utility.yul\":2570:2596   */\n      swap1\n      pop\n        /* \"#utility.yul\":2606:2677   */\n      tag_96\n        /* \"#utility.yul\":2674:2675   */\n      0x00\n        /* \"#utility.yul\":2663:2672   */\n      dup4\n        /* \"#utility.yul\":2659:2676   */\n      add\n        /* \"#utility.yul\":2650:2656   */\n      dup5\n        /* \"#utility.yul\":2606:2677   */\n      tag_56\n      jump\t// in\n    tag_96:\n        /* \"#utility.yul\":2462:2684   */\n      swap3\n      swap2\n      pop\n      pop\n      jump\t// out\n        /* \"#utility.yul\":2690:2859   */\n    tag_57:\n        /* \"#utility.yul\":2774:2785   */\n      0x00\n        /* \"#utility.yul\":2808:2814   */\n      dup3\n        /* \"#utility.yul\":2803:2806   */\n      dup3\n        /* \"#utility.yul\":2796:2815   */\n      mstore\n        /* \"#utility.yul\":2848:2852   */\n      0x20\n        /* \"#utility.yul\":2843:2846   */\n      dup3\n        /* \"#utility.yul\":2839:2853   */\n      add\n        /* \"#utility.yul\":2824:2853   */\n      swap1\n      pop\n        /* \"#utility.yul\":2690:2859   */\n      swap3\n      swap2\n      pop\n      pop\n      jump\t// out\n        /* \"#utility.yul\":2865:3024   */\n    tag_58:\n        /* \"#utility.yul\":3005:3016   */\n      0x4e4f545f4f574e45520000000000000000000000000000000000000000000000\n        /* \"#utility.yul\":3001:3002   */\n      0x00\n        /* \"#utility.yul\":2993:2999   */\n      dup3\n        /* \"#utility.yul\":2989:3003   */\n      add\n        /* \"#utility.yul\":2982:3017   */\n      mstore\n        /* \"#utility.yul\":2865:3024   */\n      pop\n      jump\t// out\n        /* \"#utility.yul\":3030:3395   */\n    tag_59:\n        /* \"#utility.yul\":3172:3175   */\n      0x00\n        /* \"#utility.yul\":3193:3259   */\n      tag_100\n        /* \"#utility.yul\":3257:3258   */\n      0x09\n        /* \"#utility.yul\":3252:3255   */\n      dup4\n        /* \"#utility.yul\":3193:3259   */\n      tag_57\n      jump\t// in\n    tag_100:\n        /* \"#utility.yul\":3186:3259   */\n      swap2\n      pop\n        /* \"#utility.yul\":3268:3361   */\n      tag_101\n        /* \"#utility.yul\":3357:3360   */\n      dup3\n        /* \"#utility.yul\":3268:3361   */\n      tag_58\n      jump\t// in\n    tag_101:\n        /* \"#utility.yul\":3386:3388   */\n      0x20\n        /* \"#utility.yul\":3381:3384   */\n      dup3\n        /* \"#utility.yul\":3377:3389   */\n      add\n        /* \"#utility.yul\":3370:3389   */\n      swap1\n      pop\n        /* \"#utility.yul\":3030:3395   */\n      swap2\n      swap1\n      pop\n      jump\t// out\n        /* \"#utility.yul\":3401:3820   */\n    tag_33:\n        /* \"#utility.yul\":3567:3571   */\n      0x00\n        /* \"#utility.yul\":3605:3607   */\n      0x20\n        /* \"#utility.yul\":3594:3603   */\n      dup3\n        /* \"#utility.yul\":3590:3608   */\n      add\n        /* \"#utility.yul\":3582:3608   */\n      swap1\n      pop\n        /* \"#utility.yul\":3654:3663   */\n      dup2\n        /* \"#utility.yul\":3648:3652   */\n      dup2\n        /* \"#utility.yul\":3644:3664   */\n      sub\n        /* \"#utility.yul\":3640:3641   */\n      0x00\n        /* \"#utility.yul\":3629:3638   */\n      dup4\n        /* \"#utility.yul\":3625:3642   */\n      add\n        /* \"#utility.yul\":3618:3665   */\n      mstore\n        /* \"#utility.yul\":3682:3813   */\n      tag_103\n        /* \"#utility.yul\":3808:3812   */\n      dup2\n        /* \"#utility.yul\":3682:3813   */\n      tag_59\n      jump\t// in\n    tag_103:\n        /* \"#utility.yul\":3674:3813   */\n      swap1\n      pop\n        /* \"#utility.yul\":3401:3820   */\n      swap2\n      swap1\n      pop\n      jump\t// out\n        /* \"#utility.yul\":3826:3988   */\n    tag_60:\n        /* \"#utility.yul\":3966:3980   */\n      0x5a45524f5f414444524553530000000000000000000000000000000000000000\n        /* \"#utility.yul\":3962:3963   */\n      0x00\n        /* \"#utility.yul\":3954:3960   */\n      dup3\n        /* \"#utility.yul\":3950:3964   */\n      add\n        /* \"#utility.yul\":3943:3981   */\n      mstore\n        /* \"#utility.yul\":3826:3988   */\n      pop\n      jump\t// out\n        /* \"#utility.yul\":3994:4360   */\n    tag_61:\n        /* \"#utility.yul\":4136:4139   */\n      0x00\n        /* \"#utility.yul\":4157:4224   */\n      tag_106\n        /* \"#utility.yul\":4221:4223   */\n      0x0c\n        /* \"#utility.yul\":4216:4219   */\n      dup4\n        /* \"#utility.yul\":4157:4224   */\n      tag_57\n      jump\t// in\n    tag_106:\n        /* \"#utility.yul\":4150:4224   */\n      swap2\n      pop\n        /* \"#utility.yul\":4233:4326   */\n      tag_107\n        /* \"#utility.yul\":4322:4325   */\n      dup3\n        /* \"#utility.yul\":4233:4326   */\n      tag_60\n      jump\t// in\n    tag_107:\n        /* \"#utility.yul\":4351:4353   */\n      0x20\n        /* \"#utility.yul\":4346:4349   */\n      dup3\n        /* \"#utility.yul\":4342:4354   */\n      add\n        /* \"#utility.yul\":4335:4354   */\n      swap1\n      pop\n        /* \"#utility.yul\":3994:4360   */\n      swap2\n      swap1\n      pop\n      jump\t// out\n        /* \"#utility.yul\":4366:4785   */\n    tag_37:\n        /* \"#utility.yul\":4532:4536   */\n      0x00\n        /* \"#utility.yul\":4570:4572   */\n      0x20\n        /* \"#utility.yul\":4559:4568   */\n      dup3\n        /* \"#utility.yul\":4555:4573   */\n      add\n        /* \"#utility.yul\":4547:4573   */\n      swap1\n      pop\n        /* \"#utility.yul\":4619:4628   */\n      dup2\n        /* \"#utility.yul\":4613:4617   */\n      dup2\n        /* \"#utility.yul\":4609:4629   */\n      sub\n        /* \"#utility.yul\":4605:4606   */\n      0x00\n        /* \"#utility.yul\":4594:4603   */\n      dup4\n        /* \"#utility.yul\":4590:4607   */\n      add\n        /* \"#utility.yul\":4583:4630   */\n      mstore\n        /* \"#utility.yul\":4647:4778   */\n      tag_109\n        /* \"#utility.yul\":4773:4777   */\n      dup2\n        /* \"#utility.yul\":4647:4778   */\n      tag_61\n      jump\t// in\n    tag_109:\n        /* \"#utility.yul\":4639:4778   */\n      swap1\n      pop\n        /* \"#utility.yul\":4366:4785   */\n      swap2\n      swap1\n      pop\n      jump\t// out\n\n    auxdata: 0xa26469706673582212207d43c8b4b3b38c8c9dc13e4f5fd9460dbdf525726d4d3c26cb019ab0cbe883e364736f6c63430008140033\n}\n",
				"bytecode": {
					"linkReferences": {},
					"object": "608060405234801561000f575f80fd5b50335f806101000a81548173ffffffffffffffffffffffffffffffffffffffff021916908373ffffffffffffffffffffffffffffffffffffffff1602179055503373ffffffffffffffffffffffffffffffffffffffff165f73ffffffffffffffffffffffffffffffffffffffff167f8be0079c531659141344cd1fd0a4f28419497f9722a3daafe3b4186f6b6457e060405160405180910390a3610760806100b65f395ff3fe608060405234801561000f575f80fd5b5060043610610055575f3560e01c80633932340014610059578063673448dd1461008957806384cfb680146100b95780638da5cb5b146100d5578063f2fde38b146100f3575b5f80fd5b610073600480360381019061006e919061055c565b61010f565b60405161008091906105a1565b60405180910390f35b6100a3600480360381019061009e919061055c565b61012c565b6040516100b091906105a1565b60405180910390f35b6100d360048036038101906100ce91906105e4565b61017e565b005b6100dd61031f565b6040516100ea9190610631565b60405180910390f35b61010d6004803603810190610108919061055c565b610342565b005b6001602052805f5260405f205f915054906101000a900460ff1681565b5f60015f8373ffffffffffffffffffffffffffffffffffffffff1673ffffffffffffffffffffffffffffffffffffffff1681526020019081526020015f205f9054906101000a900460ff169050919050565b5f8054906101000a900473ffffffffffffffffffffffffffffffffffffffff1673ffffffffffffffffffffffffffffffffffffffff163373ffffffffffffffffffffffffffffffffffffffff161461020b576040517f08c379a0000000000000000000000000000000000000000000000000000000008152600401610202906106a4565b60405180910390fd5b5f73ffffffffffffffffffffffffffffffffffffffff168273ffffffffffffffffffffffffffffffffffffffff1603610279576040517f08c379a00000000000000000000000000000000000000000000000000000000081526004016102709061070c565b60405180910390fd5b8060015f8473ffffffffffffffffffffffffffffffffffffffff1673ffffffffffffffffffffffffffffffffffffffff1681526020019081526020015f205f6101000a81548160ff0219169083151502179055508173ffffffffffffffffffffffffffffffffffffffff167f989eeded2e8e017c9284380427d92c241b1c59a5a40f219398651691425265798260405161031391906105a1565b60405180910390a25050565b5f8054906101000a900473ffffffffffffffffffffffffffffffffffffffff1681565b5f8054906101000a900473ffffffffffffffffffffffffffffffffffffffff1673ffffffffffffffffffffffffffffffffffffffff163373ffffffffffffffffffffffffffffffffffffffff16146103cf576040517f08c379a00000000000000000000000000000000000000000000000000000000081526004016103c6906106a4565b60405180910390fd5b5f73ffffffffffffffffffffffffffffffffffffffff168173ffffffffffffffffffffffffffffffffffffffff160361043d576040517f08c379a00000000000000000000000000000000000000000000000000000000081526004016104349061070c565b60405180910390fd5b5f805f9054906101000a900473ffffffffffffffffffffffffffffffffffffffff169050815f806101000a81548173ffffffffffffffffffffffffffffffffffffffff021916908373ffffffffffffffffffffffffffffffffffffffff1602179055508173ffffffffffffffffffffffffffffffffffffffff168173ffffffffffffffffffffffffffffffffffffffff167f8be0079c531659141344cd1fd0a4f28419497f9722a3daafe3b4186f6b6457e060405160405180910390a35050565b5f80fd5b5f73ffffffffffffffffffffffffffffffffffffffff82169050919050565b5f61052b82610502565b9050919050565b61053b81610521565b8114610545575f80fd5b50565b5f8135905061055681610532565b92915050565b5f60208284031215610571576105706104fe565b5b5f61057e84828501610548565b91505092915050565b5f8115159050919050565b61059b81610587565b82525050565b5f6020820190506105b45f830184610592565b92915050565b6105c381610587565b81146105cd575f80fd5b50565b5f813590506105de816105ba565b92915050565b5f80604083850312156105fa576105f96104fe565b5b5f61060785828601610548565b9250506020610618858286016105d0565b9150509250929050565b61062b81610521565b82525050565b5f6020820190506106445f830184610622565b92915050565b5f82825260208201905092915050565b7f4e4f545f4f574e455200000000000000000000000000000000000000000000005f82015250565b5f61068e60098361064a565b91506106998261065a565b602082019050919050565b5f6020820190508181035f8301526106bb81610682565b9050919050565b7f5a45524f5f4144445245535300000000000000000000000000000000000000005f82015250565b5f6106f6600c8361064a565b9150610701826106c2565b602082019050919050565b5f6020820190508181035f830152610723816106ea565b905091905056fea26469706673582212207d43c8b4b3b38c8c9dc13e4f5fd9460dbdf525726d4d3c26cb019ab0cbe883e364736f6c63430008140033",
					"opcodes": "PUSH1 0x80 PUSH1 0x40 MSTORE CALLVALUE DUP1 ISZERO PUSH2 0xF JUMPI PUSH0 DUP1 REVERT JUMPDEST POP CALLER PUSH0 DUP1 PUSH2 0x100 EXP DUP2 SLOAD DUP2 PUSH20 0xFFFFFFFFFFFFFFFFFFFFFFFFFFFFFFFFFFFFFFFF MUL NOT AND SWAP1 DUP4 PUSH20 0xFFFFFFFFFFFFFFFFFFFFFFFFFFFFFFFFFFFFFFFF AND MUL OR SWAP1 SSTORE POP CALLER PUSH20 0xFFFFFFFFFFFFFFFFFFFFFFFFFFFFFFFFFFFFFFFF AND PUSH0 PUSH20 0xFFFFFFFFFFFFFFFFFFFFFFFFFFFFFFFFFFFFFFFF AND PUSH32 0x8BE0079C531659141344CD1FD0A4F28419497F9722A3DAAFE3B4186F6B6457E0 PUSH1 0x40 MLOAD PUSH1 0x40 MLOAD DUP1 SWAP2 SUB SWAP1 LOG3 PUSH2 0x760 DUP1 PUSH2 0xB6 PUSH0 CODECOPY PUSH0 RETURN INVALID PUSH1 0x80 PUSH1 0x40 MSTORE CALLVALUE DUP1 ISZERO PUSH2 0xF JUMPI PUSH0 DUP1 REVERT JUMPDEST POP PUSH1 0x4 CALLDATASIZE LT PUSH2 0x55 JUMPI PUSH0 CALLDATALOAD PUSH1 0xE0 SHR DUP1 PUSH4 0x39323400 EQ PUSH2 0x59 JUMPI DUP1 PUSH4 0x673448DD EQ PUSH2 0x89 JUMPI DUP1 PUSH4 0x84CFB680 EQ PUSH2 0xB9 JUMPI DUP1 PUSH4 0x8DA5CB5B EQ PUSH2 0xD5 JUMPI DUP1 PUSH4 0xF2FDE38B EQ PUSH2 0xF3 JUMPI JUMPDEST PUSH0 DUP1 REVERT JUMPDEST PUSH2 0x73 PUSH1 0x4 DUP1 CALLDATASIZE SUB DUP2 ADD SWAP1 PUSH2 0x6E SWAP2 SWAP1 PUSH2 0x55C JUMP JUMPDEST PUSH2 0x10F JUMP JUMPDEST PUSH1 0x40 MLOAD PUSH2 0x80 SWAP2 SWAP1 PUSH2 0x5A1 JUMP JUMPDEST PUSH1 0x40 MLOAD DUP1 SWAP2 SUB SWAP1 RETURN JUMPDEST PUSH2 0xA3 PUSH1 0x4 DUP1 CALLDATASIZE SUB DUP2 ADD SWAP1 PUSH2 0x9E SWAP2 SWAP1 PUSH2 0x55C JUMP JUMPDEST PUSH2 0x12C JUMP JUMPDEST PUSH1 0x40 MLOAD PUSH2 0xB0 SWAP2 SWAP1 PUSH2 0x5A1 JUMP JUMPDEST PUSH1 0x40 MLOAD DUP1 SWAP2 SUB SWAP1 RETURN JUMPDEST PUSH2 0xD3 PUSH1 0x4 DUP1 CALLDATASIZE SUB DUP2 ADD SWAP1 PUSH2 0xCE SWAP2 SWAP1 PUSH2 0x5E4 JUMP JUMPDEST PUSH2 0x17E JUMP JUMPDEST STOP JUMPDEST PUSH2 0xDD PUSH2 0x31F JUMP JUMPDEST PUSH1 0x40 MLOAD PUSH2 0xEA SWAP2 SWAP1 PUSH2 0x631 JUMP JUMPDEST PUSH1 0x40 MLOAD DUP1 SWAP2 SUB SWAP1 RETURN JUMPDEST PUSH2 0x10D PUSH1 0x4 DUP1 CALLDATASIZE SUB DUP2 ADD SWAP1 PUSH2 0x108 SWAP2 SWAP1 PUSH2 0x55C JUMP JUMPDEST PUSH2 0x342 JUMP JUMPDEST STOP JUMPDEST PUSH1 0x1 PUSH1 0x20 MSTORE DUP1 PUSH0 MSTORE PUSH1 0x40 PUSH0 KECCAK256 PUSH0 SWAP2 POP SLOAD SWAP1 PUSH2 0x100 EXP SWAP1 DIV PUSH1 0xFF AND DUP2 JUMP JUMPDEST PUSH0 PUSH1 0x1 PUSH0 DUP4 PUSH20 0xFFFFFFFFFFFFFFFFFFFFFFFFFFFFFFFFFFFFFFFF AND PUSH20 0xFFFFFFFFFFFFFFFFFFFFFFFFFFFFFFFFFFFFFFFF AND DUP2 MSTORE PUSH1 0x20 ADD SWAP1 DUP2 MSTORE PUSH1 0x20 ADD PUSH0 KECCAK256 PUSH0 SWAP1 SLOAD SWAP1 PUSH2 0x100 EXP SWAP1 DIV PUSH1 0xFF AND SWAP1 POP SWAP2 SWAP1 POP JUMP JUMPDEST PUSH0 DUP1 SLOAD SWAP1 PUSH2 0x100 EXP SWAP1 DIV PUSH20 0xFFFFFFFFFFFFFFFFFFFFFFFFFFFFFFFFFFFFFFFF AND PUSH20 0xFFFFFFFFFFFFFFFFFFFFFFFFFFFFFFFFFFFFFFFF AND CALLER PUSH20 0xFFFFFFFFFFFFFFFFFFFFFFFFFFFFFFFFFFFFFFFF AND EQ PUSH2 0x20B JUMPI PUSH1 0x40 MLOAD PUSH32 0x8C379A000000000000000000000000000000000000000000000000000000000 DUP2 MSTORE PUSH1 0x4 ADD PUSH2 0x202 SWAP1 PUSH2 0x6A4 JUMP JUMPDEST PUSH1 0x40 MLOAD DUP1 SWAP2 SUB SWAP1 REVERT JUMPDEST PUSH0 PUSH20 0xFFFFFFFFFFFFFFFFFFFFFFFFFFFFFFFFFFFFFFFF AND DUP3 PUSH20 0xFFFFFFFFFFFFFFFFFFFFFFFFFFFFFFFFFFFFFFFF AND SUB PUSH2 0x279 JUMPI PUSH1 0x40 MLOAD PUSH32 0x8C379A000000000000000000000000000000000000000000000000000000000 DUP2 MSTORE PUSH1 0x4 ADD PUSH2 0x270 SWAP1 PUSH2 0x70C JUMP JUMPDEST PUSH1 0x40 MLOAD DUP1 SWAP2 SUB SWAP1 REVERT JUMPDEST DUP1 PUSH1 0x1 PUSH0 DUP5 PUSH20 0xFFFFFFFFFFFFFFFFFFFFFFFFFFFFFFFFFFFFFFFF AND PUSH20 0xFFFFFFFFFFFFFFFFFFFFFFFFFFFFFFFFFFFFFFFF AND DUP2 MSTORE PUSH1 0x20 ADD SWAP1 DUP2 MSTORE PUSH1 0x20 ADD PUSH0 KECCAK256 PUSH0 PUSH2 0x100 EXP DUP2 SLOAD DUP2 PUSH1 0xFF MUL NOT AND SWAP1 DUP4 ISZERO ISZERO MUL OR SWAP1 SSTORE POP DUP2 PUSH20 0xFFFFFFFFFFFFFFFFFFFFFFFFFFFFFFFFFFFFFFFF AND PUSH32 0x989EEDED2E8E017C9284380427D92C241B1C59A5A40F21939865169142526579 DUP3 PUSH1 0x40 MLOAD PUSH2 0x313 SWAP2 SWAP1 PUSH2 0x5A1 JUMP JUMPDEST PUSH1 0x40 MLOAD DUP1 SWAP2 SUB SWAP1 LOG2 POP POP JUMP JUMPDEST PUSH0 DUP1 SLOAD SWAP1 PUSH2 0x100 EXP SWAP1 DIV PUSH20 0xFFFFFFFFFFFFFFFFFFFFFFFFFFFFFFFFFFFFFFFF AND DUP2 JUMP JUMPDEST PUSH0 DUP1 SLOAD SWAP1 PUSH2 0x100 EXP SWAP1 DIV PUSH20 0xFFFFFFFFFFFFFFFFFFFFFFFFFFFFFFFFFFFFFFFF AND PUSH20 0xFFFFFFFFFFFFFFFFFFFFFFFFFFFFFFFFFFFFFFFF AND CALLER PUSH20 0xFFFFFFFFFFFFFFFFFFFFFFFFFFFFFFFFFFFFFFFF AND EQ PUSH2 0x3CF JUMPI PUSH1 0x40 MLOAD PUSH32 0x8C379A000000000000000000000000000000000000000000000000000000000 DUP2 MSTORE PUSH1 0x4 ADD PUSH2 0x3C6 SWAP1 PUSH2 0x6A4 JUMP JUMPDEST PUSH1 0x40 MLOAD DUP1 SWAP2 SUB SWAP1 REVERT JUMPDEST PUSH0 PUSH20 0xFFFFFFFFFFFFFFFFFFFFFFFFFFFFFFFFFFFFFFFF AND DUP2 PUSH20 0xFFFFFFFFFFFFFFFFFFFFFFFFFFFFFFFFFFFFFFFF AND SUB PUSH2 0x43D JUMPI PUSH1 0x40 MLOAD PUSH32 0x8C379A000000000000000000000000000000000000000000000000000000000 DUP2 MSTORE PUSH1 0x4 ADD PUSH2 0x434 SWAP1 PUSH2 0x70C JUMP JUMPDEST PUSH1 0x40 MLOAD DUP1 SWAP2 SUB SWAP1 REVERT JUMPDEST PUSH0 DUP1 PUSH0 SWAP1 SLOAD SWAP1 PUSH2 0x100 EXP SWAP1 DIV PUSH20 0xFFFFFFFFFFFFFFFFFFFFFFFFFFFFFFFFFFFFFFFF AND SWAP1 POP DUP2 PUSH0 DUP1 PUSH2 0x100 EXP DUP2 SLOAD DUP2 PUSH20 0xFFFFFFFFFFFFFFFFFFFFFFFFFFFFFFFFFFFFFFFF MUL NOT AND SWAP1 DUP4 PUSH20 0xFFFFFFFFFFFFFFFFFFFFFFFFFFFFFFFFFFFFFFFF AND MUL OR SWAP1 SSTORE POP DUP2 PUSH20 0xFFFFFFFFFFFFFFFFFFFFFFFFFFFFFFFFFFFFFFFF AND DUP2 PUSH20 0xFFFFFFFFFFFFFFFFFFFFFFFFFFFFFFFFFFFFFFFF AND PUSH32 0x8BE0079C531659141344CD1FD0A4F28419497F9722A3DAAFE3B4186F6B6457E0 PUSH1 0x40 MLOAD PUSH1 0x40 MLOAD DUP1 SWAP2 SUB SWAP1 LOG3 POP POP JUMP JUMPDEST PUSH0 DUP1 REVERT JUMPDEST PUSH0 PUSH20 0xFFFFFFFFFFFFFFFFFFFFFFFFFFFFFFFFFFFFFFFF DUP3 AND SWAP1 POP SWAP2 SWAP1 POP JUMP JUMPDEST PUSH0 PUSH2 0x52B DUP3 PUSH2 0x502 JUMP JUMPDEST SWAP1 POP SWAP2 SWAP1 POP JUMP JUMPDEST PUSH2 0x53B DUP2 PUSH2 0x521 JUMP JUMPDEST DUP2 EQ PUSH2 0x545 JUMPI PUSH0 DUP1 REVERT JUMPDEST POP JUMP JUMPDEST PUSH0 DUP2 CALLDATALOAD SWAP1 POP PUSH2 0x556 DUP2 PUSH2 0x532 JUMP JUMPDEST SWAP3 SWAP2 POP POP JUMP JUMPDEST PUSH0 PUSH1 0x20 DUP3 DUP5 SUB SLT ISZERO PUSH2 0x571 JUMPI PUSH2 0x570 PUSH2 0x4FE JUMP JUMPDEST JUMPDEST PUSH0 PUSH2 0x57E DUP5 DUP3 DUP6 ADD PUSH2 0x548 JUMP JUMPDEST SWAP2 POP POP SWAP3 SWAP2 POP POP JUMP JUMPDEST PUSH0 DUP2 ISZERO ISZERO SWAP1 POP SWAP2 SWAP1 POP JUMP JUMPDEST PUSH2 0x59B DUP2 PUSH2 0x587 JUMP JUMPDEST DUP3 MSTORE POP POP JUMP JUMPDEST PUSH0 PUSH1 0x20 DUP3 ADD SWAP1 POP PUSH2 0x5B4 PUSH0 DUP4 ADD DUP5 PUSH2 0x592 JUMP JUMPDEST SWAP3 SWAP2 POP POP JUMP JUMPDEST PUSH2 0x5C3 DUP2 PUSH2 0x587 JUMP JUMPDEST DUP2 EQ PUSH2 0x5CD JUMPI PUSH0 DUP1 REVERT JUMPDEST POP JUMP JUMPDEST PUSH0 DUP2 CALLDATALOAD SWAP1 POP PUSH2 0x5DE DUP2 PUSH2 0x5BA JUMP JUMPDEST SWAP3 SWAP2 POP POP JUMP JUMPDEST PUSH0 DUP1 PUSH1 0x40 DUP4 DUP6 SUB SLT ISZERO PUSH2 0x5FA JUMPI PUSH2 0x5F9 PUSH2 0x4FE JUMP JUMPDEST JUMPDEST PUSH0 PUSH2 0x607 DUP6 DUP3 DUP7 ADD PUSH2 0x548 JUMP JUMPDEST SWAP3 POP POP PUSH1 0x20 PUSH2 0x618 DUP6 DUP3 DUP7 ADD PUSH2 0x5D0 JUMP JUMPDEST SWAP2 POP POP SWAP3 POP SWAP3 SWAP1 POP JUMP JUMPDEST PUSH2 0x62B DUP2 PUSH2 0x521 JUMP JUMPDEST DUP3 MSTORE POP POP JUMP JUMPDEST PUSH0 PUSH1 0x20 DUP3 ADD SWAP1 POP PUSH2 0x644 PUSH0 DUP4 ADD DUP5 PUSH2 0x622 JUMP JUMPDEST SWAP3 SWAP2 POP POP JUMP JUMPDEST PUSH0 DUP3 DUP3 MSTORE PUSH1 0x20 DUP3 ADD SWAP1 POP SWAP3 SWAP2 POP POP JUMP JUMPDEST PUSH32 0x4E4F545F4F574E45520000000000000000000000000000000000000000000000 PUSH0 DUP3 ADD MSTORE POP JUMP JUMPDEST PUSH0 PUSH2 0x68E PUSH1 0x9 DUP4 PUSH2 0x64A JUMP JUMPDEST SWAP2 POP PUSH2 0x699 DUP3 PUSH2 0x65A JUMP JUMPDEST PUSH1 0x20 DUP3 ADD SWAP1 POP SWAP2 SWAP1 POP JUMP JUMPDEST PUSH0 PUSH1 0x20 DUP3 ADD SWAP1 POP DUP2 DUP2 SUB PUSH0 DUP4 ADD MSTORE PUSH2 0x6BB DUP2 PUSH2 0x682 JUMP JUMPDEST SWAP1 POP SWAP2 SWAP1 POP JUMP JUMPDEST PUSH32 0x5A45524F5F414444524553530000000000000000000000000000000000000000 PUSH0 DUP3 ADD MSTORE POP JUMP JUMPDEST PUSH0 PUSH2 0x6F6 PUSH1 0xC DUP4 PUSH2 0x64A JUMP JUMPDEST SWAP2 POP PUSH2 0x701 DUP3 PUSH2 0x6C2 JUMP JUMPDEST PUSH1 0x20 DUP3 ADD SWAP1 POP SWAP2 SWAP1 POP JUMP JUMPDEST PUSH0 PUSH1 0x20 DUP3 ADD SWAP1 POP DUP2 DUP2 SUB PUSH0 DUP4 ADD MSTORE PUSH2 0x723 DUP2 PUSH2 0x6EA JUMP JUMPDEST SWAP1 POP SWAP2 SWAP1 POP JUMP INVALID LOG2 PUSH5 0x6970667358 0x22 SLT KECCAK256 PUSH30 0x43C8B4B3B38C8C9DC13E4F5FD9460DBDF525726D4D3C26CB019AB0CBE883 0xE3 PUSH5 0x736F6C6343 STOP ADDMOD EQ STOP CALLER "
				},
				"gasEstimates": {
					"creation": {
						"codeDepositCost": "377600",
						"executionCost": "26217",
						"totalCost": "403817"
					},
					"external": {
						"approvedInitializers(address)": "2811",
						"isApproved(address)": "2870",
						"owner()": "2549",
						"setApproved(address,bool)": "infinite",
						"transferOwnership(address)": "30673"
					}
				},
				"methodIdentifiers": {
					"approvedInitializers(address)": "39323400",
					"isApproved(address)": "673448dd",
					"owner()": "8da5cb5b",
					"setApproved(address,bool)": "84cfb680",
					"transferOwnership(address)": "f2fde38b"
				}
			},
			"storageLayout": {
				"storage": [
					{
						"astId": 4,
						"contract": "contracts/DeploymentGuardian.sol:DeploymentGuardian",
						"label": "owner",
						"offset": 0,
						"slot": "0",
						"type": "t_address"
					},
					{
						"astId": 8,
						"contract": "contracts/DeploymentGuardian.sol:DeploymentGuardian",
						"label": "approvedInitializers",
						"offset": 0,
						"slot": "1",
						"type": "t_mapping(t_address,t_bool)"
					}
				],
				"types": {
					"t_address": {
						"encoding": "inplace",
						"label": "address",
						"numberOfBytes": "20"
					},
					"t_bool": {
						"encoding": "inplace",
						"label": "bool",
						"numberOfBytes": "1"
					},
					"t_mapping(t_address,t_bool)": {
						"encoding": "mapping",
						"key": "t_address",
						"label": "mapping(address => bool)",
						"numberOfBytes": "32",
						"value": "t_bool"
					}
				}
			},
			"userdoc": {
				"kind": "user",
				"methods": {
					"isApproved(address)": {
						"notice": "Check if an address is approved to initialize contracts"
					},
					"setApproved(address,bool)": {
						"notice": "Set approval status for an initializer address"
					},
					"transferOwnership(address)": {
						"notice": "Transfer ownership to a new address"
					}
				},
				"notice": "Simple authorization contract that controls who can initialize protected contracts",
				"version": 1
			}
		}
	}
}