{
	"contracts/GuardedInit.sol": {
		"GuardedInit": {
			"abi": [
				{
					"inputs": [
						{
							"internalType": "address",
							"name": "_guardian",
							"type": "address"
						}
					],
					"stateMutability": "nonpayable",
					"type": "constructor"
				},
				{
					"anonymous": false,
					"inputs": [
						{
							"indexed": true,
							"internalType": "address",
							"name": "admin",
							"type": "address"
						},
						{
							"indexed": true,
							"internalType": "address",
							"name": "caller",
							"type": "address"
						}
					],
					"name": "Initialized",
					"type": "event"
				},
				{
					"inputs": [],
					"name": "admin",
					"outputs": [
						{
							"internalType": "address",
							"name": "",
							"type": "address"
						}
					],
					"stateMutability": "view",
					"type": "function"
				},
				{
					"inputs": [],
					"name": "adminOnlyFunction",
					"outputs": [
						{
							"internalType": "string",
							"name": "",
							"type": "string"
						}
					],
					"stateMutability": "view",
					"type": "function"
				},
				{
					"inputs": [],
					"name": "guardian",
					"outputs": [
						{
							"internalType": "contract DeploymentGuardian",
							"name": "",
							"type": "address"
						}
					],
					"stateMutability": "view",
					"type": "function"
				},
				{
					"inputs": [
						{
							"internalType": "address",
							"name": "_admin",
							"type": "address"
						}
					],
					"name": "initialize",
					"outputs": [],
					"stateMutability": "nonpayable",
					"type": "function"
				},
				{
					"inputs": [],
					"name": "initialized",
					"outputs": [
						{
							"internalType": "bool",
							"name": "",
							"type": "bool"
						}
					],
					"stateMutability": "view",
					"type": "function"
				}
			],
			"devdoc": {
				"details": "Educational POC - demonstrates defense against front-running via authorization PROTECTION MECHANISM: 1. Guardian is set at DEPLOYMENT (immutable, can't be changed) 2. Guardian must be YOUR DeploymentGuardian (passed to constructor) 3. Attacker CANNOT pass their own malicious guardian 4. Only guardian-approved addresses can successfully call initialize 5. Even if attacker calls first, they are NOT approved → transaction reverts This replaces \"first caller wins\" with \"only approved caller wins\" IMMUTABLE GUARDIAN: - Guardian address is set ONCE in constructor (immutable keyword) - Stored in bytecode, not storage (works with many proxy patterns) - Cannot be changed or front-run after deployment",
				"kind": "dev",
				"methods": {
					"adminOnlyFunction()": {
						"details": "In a real contract, admin could control critical functions"
					},
					"constructor": {
						"details": "Guardian is set ONCE at deployment and cannot be changed What this protects: - Guardian set by deployer, not by initializer - Attacker cannot pass their own malicious guardian - require(_guardian != address(0)) prevents zero address guardian",
						"params": {
							"_guardian": "Address of the DeploymentGuardian contract"
						}
					},
					"initialize(address)": {
						"details": "Only guardian-approved addresses can call this successfully What this protects: - require(!initialized) prevents re-initialization - require(_admin != address(0)) prevents setting admin to zero address - require(guardian.approvedInitializers(msg.sender)) prevents unauthorized initialization This is the key defense: even if an attacker calls first, they will hit the \"NOT_APPROVED\" revert unless they are in the guardian's allowlist. The guardian is immutable and set by the deployer, so attacker can't use their own guardian.",
						"params": {
							"_admin": "Address to become the admin"
						}
					}
				},
				"title": "GuardedInit",
				"version": 1
			},
			"evm": {
				"assembly": "    /* \"contracts/GuardedInit.sol\":947:3233  contract GuardedInit {... */\n  mstore(0x40, 0xa0)\n    /* \"contracts/GuardedInit.sol\":1678:1825  constructor(address _guardian) {... */\n  callvalue\n  dup1\n  iszero\n  tag_1\n  jumpi\n  0x00\n  dup1\n  revert\ntag_1:\n  pop\n  mload(0x40)\n  sub(codesize, bytecodeSize)\n  dup1\n  bytecodeSize\n  dup4\n  codecopy\n  dup2\n  dup2\n  add\n  0x40\n  mstore\n  dup2\n  add\n  swap1\n  tag_2\n  swap2\n  swap1\n  tag_3\n  jump\t// in\ntag_2:\n    /* \"contracts/GuardedInit.sol\":1748:1749  0 */\n  0x00\n    /* \"contracts/GuardedInit.sol\":1727:1750  _guardian != address(0) */\n  0xffffffffffffffffffffffffffffffffffffffff\n  and\n    /* \"contracts/GuardedInit.sol\":1727:1736  _guardian */\n  dup2\n    /* \"contracts/GuardedInit.sol\":1727:1750  _guardian != address(0) */\n  0xffffffffffffffffffffffffffffffffffffffff\n  and\n  sub\n    /* \"contracts/GuardedInit.sol\":1719:1768  require(_guardian != address(0), \"GUARDIAN_ZERO\") */\n  tag_6\n  jumpi\n  mload(0x40)\n  0x08c379a000000000000000000000000000000000000000000000000000000000\n  dup2\n  mstore\n  0x04\n  add\n  tag_7\n  swap1\n  tag_8\n  jump\t// in\ntag_7:\n  mload(0x40)\n  dup1\n  swap2\n  sub\n  swap1\n  revert\ntag_6:\n    /* \"contracts/GuardedInit.sol\":1808:1817  _guardian */\n  dup1\n    /* \"contracts/GuardedInit.sol\":1778:1818  guardian = DeploymentGuardian(_guardian) */\n  0xffffffffffffffffffffffffffffffffffffffff\n  and\n  0x80\n  dup2\n  0xffffffffffffffffffffffffffffffffffffffff\n  and\n  dup2\n  mstore\n  pop\n  pop\n    /* \"contracts/GuardedInit.sol\":1678:1825  constructor(address _guardian) {... */\n  pop\n    /* \"contracts/GuardedInit.sol\":947:3233  contract GuardedInit {... */\n  jump(tag_9)\n    /* \"#utility.yul\":88:205   */\ntag_11:\n    /* \"#utility.yul\":197:198   */\n  0x00\n    /* \"#utility.yul\":194:195   */\n  dup1\n    /* \"#utility.yul\":187:199   */\n  revert\n    /* \"#utility.yul\":334:460   */\ntag_13:\n    /* \"#utility.yul\":371:378   */\n  0x00\n    /* \"#utility.yul\":411:453   */\n  0xffffffffffffffffffffffffffffffffffffffff\n    /* \"#utility.yul\":404:409   */\n  dup3\n    /* \"#utility.yul\":400:454   */\n  and\n    /* \"#utility.yul\":389:454   */\n  swap1\n  pop\n    /* \"#utility.yul\":334:460   */\n  swap2\n  swap1\n  pop\n  jump\t// out\n    /* \"#utility.yul\":466:562   */\ntag_14:\n    /* \"#utility.yul\":503:510   */\n  0x00\n    /* \"#utility.yul\":532:556   */\n  tag_26\n    /* \"#utility.yul\":550:555   */\n  dup3\n    /* \"#utility.yul\":532:556   */\n  tag_13\n  jump\t// in\ntag_26:\n    /* \"#utility.yul\":521:556   */\n  swap1\n  pop\n    /* \"#utility.yul\":466:562   */\n  swap2\n  swap1\n  pop\n  jump\t// out\n    /* \"#utility.yul\":568:690   */\ntag_15:\n    /* \"#utility.yul\":641:665   */\n  tag_28\n    /* \"#utility.yul\":659:664   */\n  dup2\n    /* \"#utility.yul\":641:665   */\n  tag_14\n  jump\t// in\ntag_28:\n    /* \"#utility.yul\":634:639   */\n  dup2\n    /* \"#utility.yul\":631:666   */\n  eq\n    /* \"#utility.yul\":621:684   */\n  tag_29\n  jumpi\n    /* \"#utility.yul\":680:681   */\n  0x00\n    /* \"#utility.yul\":677:678   */\n  dup1\n    /* \"#utility.yul\":670:682   */\n  revert\n    /* \"#utility.yul\":621:684   */\ntag_29:\n    /* \"#utility.yul\":568:690   */\n  pop\n  jump\t// out\n    /* \"#utility.yul\":696:839   */\ntag_16:\n    /* \"#utility.yul\":753:758   */\n  0x00\n    /* \"#utility.yul\":784:790   */\n  dup2\n    /* \"#utility.yul\":778:791   */\n  mload\n    /* \"#utility.yul\":769:791   */\n  swap1\n  pop\n    /* \"#utility.yul\":800:833   */\n  tag_31\n    /* \"#utility.yul\":827:832   */\n  dup2\n    /* \"#utility.yul\":800:833   */\n  tag_15\n  jump\t// in\ntag_31:\n    /* \"#utility.yul\":696:839   */\n  swap3\n  swap2\n  pop\n  pop\n  jump\t// out\n    /* \"#utility.yul\":845:1196   */\ntag_3:\n    /* \"#utility.yul\":915:921   */\n  0x00\n    /* \"#utility.yul\":964:966   */\n  0x20\n    /* \"#utility.yul\":952:961   */\n  dup3\n    /* \"#utility.yul\":943:950   */\n  dup5\n    /* \"#utility.yul\":939:962   */\n  sub\n    /* \"#utility.yul\":935:967   */\n  slt\n    /* \"#utility.yul\":932:1051   */\n  iszero\n  tag_33\n  jumpi\n    /* \"#utility.yul\":970:1049   */\n  tag_34\n  tag_11\n  jump\t// in\ntag_34:\n    /* \"#utility.yul\":932:1051   */\ntag_33:\n    /* \"#utility.yul\":1090:1091   */\n  0x00\n    /* \"#utility.yul\":1115:1179   */\n  tag_35\n    /* \"#utility.yul\":1171:1178   */\n  dup5\n    /* \"#utility.yul\":1162:1168   */\n  dup3\n    /* \"#utility.yul\":1151:1160   */\n  dup6\n    /* \"#utility.yul\":1147:1169   */\n  add\n    /* \"#utility.yul\":1115:1179   */\n  tag_16\n  jump\t// in\ntag_35:\n    /* \"#utility.yul\":1105:1179   */\n  swap2\n  pop\n    /* \"#utility.yul\":1061:1189   */\n  pop\n    /* \"#utility.yul\":845:1196   */\n  swap3\n  swap2\n  pop\n  pop\n  jump\t// out\n    /* \"#utility.yul\":1202:1371   */\ntag_17:\n    /* \"#utility.yul\":1286:1297   */\n  0x00\n    /* \"#utility.yul\":1320:1326   */\n  dup3\n    /* \"#utility.yul\":1315:1318   */\n  dup3\n    /* \"#utility.yul\":1308:1327   */\n  mstore\n    /* \"#utility.yul\":1360:1364   */\n  0x20\n    /* \"#utility.yul\":1355:1358   */\n  dup3\n    /* \"#utility.yul\":1351:1365   */\n  add\n    /* \"#utility.yul\":1336:1365   */\n  swap1\n  pop\n    /* \"#utility.yul\":1202:1371   */\n  swap3\n  swap2\n  pop\n  pop\n  jump\t// out\n    /* \"#utility.yul\":1377:1540   */\ntag_18:\n    /* \"#utility.yul\":1517:1532   */\n  0x475541524449414e5f5a45524f00000000000000000000000000000000000000\n    /* \"#utility.yul\":1513:1514   */\n  0x00\n    /* \"#utility.yul\":1505:1511   */\n  dup3\n    /* \"#utility.yul\":1501:1515   */\n  add\n    /* \"#utility.yul\":1494:1533   */\n  mstore\n    /* \"#utility.yul\":1377:1540   */\n  pop\n  jump\t// out\n    /* \"#utility.yul\":1546:1912   */\ntag_19:\n    /* \"#utility.yul\":1688:1691   */\n  0x00\n    /* \"#utility.yul\":1709:1776   */\n  tag_39\n    /* \"#utility.yul\":1773:1775   */\n  0x0d\n    /* \"#utility.yul\":1768:1771   */\n  dup4\n    /* \"#utility.yul\":1709:1776   */\n  tag_17\n  jump\t// in\ntag_39:\n    /* \"#utility.yul\":1702:1776   */\n  swap2\n  pop\n    /* \"#utility.yul\":1785:1878   */\n  tag_40\n    /* \"#utility.yul\":1874:1877   */\n  dup3\n    /* \"#utility.yul\":1785:1878   */\n  tag_18\n  jump\t// in\ntag_40:\n    /* \"#utility.yul\":1903:1905   */\n  0x20\n    /* \"#utility.yul\":1898:1901   */\n  dup3\n    /* \"#utility.yul\":1894:1906   */\n  add\n    /* \"#utility.yul\":1887:1906   */\n  swap1\n  pop\n    /* \"#utility.yul\":1546:1912   */\n  swap2\n  swap1\n  pop\n  jump\t// out\n    /* \"#utility.yul\":1918:2337   */\ntag_8:\n    /* \"#utility.yul\":2084:2088   */\n  0x00\n    /* \"#utility.yul\":2122:2124   */\n  0x20\n    /* \"#utility.yul\":2111:2120   */\n  dup3\n    /* \"#utility.yul\":2107:2125   */\n  add\n    /* \"#utility.yul\":2099:2125   */\n  swap1\n  pop\n    /* \"#utility.yul\":2171:2180   */\n  dup2\n    /* \"#utility.yul\":2165:2169   */\n  dup2\n    /* \"#utility.yul\":2161:2181   */\n  sub\n    /* \"#utility.yul\":2157:2158   */\n  0x00\n    /* \"#utility.yul\":2146:2155   */\n  dup4\n    /* \"#utility.yul\":2142:2159   */\n  add\n    /* \"#utility.yul\":2135:2182   */\n  mstore\n    /* \"#utility.yul\":2199:2330   */\n  tag_42\n    /* \"#utility.yul\":2325:2329   */\n  dup2\n    /* \"#utility.yul\":2199:2330   */\n  tag_19\n  jump\t// in\ntag_42:\n    /* \"#utility.yul\":2191:2330   */\n  swap1\n  pop\n    /* \"#utility.yul\":1918:2337   */\n  swap2\n  swap1\n  pop\n  jump\t// out\n    /* \"contracts/GuardedInit.sol\":947:3233  contract GuardedInit {... */\ntag_9:\n  mload(0x80)\n  codecopy(0x00, dataOffset(sub_0), dataSize(sub_0))\n  0x00\n  assignImmutable(\"0x360f73c63c063fae5d1e9ead454a4836ec470b54de0960f05909b7f8c7c140ba\")\n  return(0x00, dataSize(sub_0))\nstop\n\nsub_0: assembly {\n        /* \"contracts/GuardedInit.sol\":947:3233  contract GuardedInit {... */\n      mstore(0x40, 0x80)\n      callvalue\n      dup1\n      iszero\n      tag_1\n      jumpi\n      0x00\n      dup1\n      revert\n    tag_1:\n      pop\n      jumpi(tag_2, lt(calldatasize, 0x04))\n      shr(0xe0, calldataload(0x00))\n      dup1\n      0x122f9d43\n      eq\n      tag_3\n      jumpi\n      dup1\n      0x158ef93e\n      eq\n      tag_4\n      jumpi\n      dup1\n      0x452a9320\n      eq\n      tag_5\n      jumpi\n      dup1\n      0xc4d66de8\n      eq\n      tag_6\n      jumpi\n      dup1\n      0xf851a440\n      eq\n      tag_7\n      jumpi\n    tag_2:\n      0x00\n      dup1\n      revert\n        /* \"contracts/GuardedInit.sol\":3069:3231  function adminOnlyFunction() external view returns (string memory) {... */\n    tag_3:\n      tag_8\n      tag_9\n      jump\t// in\n    tag_8:\n      mload(0x40)\n      tag_10\n      swap2\n      swap1\n      tag_11\n      jump\t// in\n    tag_10:\n      mload(0x40)\n      dup1\n      swap2\n      sub\n      swap1\n      return\n        /* \"contracts/GuardedInit.sol\":998:1021  bool public initialized */\n    tag_4:\n      tag_12\n      tag_13\n      jump\t// in\n    tag_12:\n      mload(0x40)\n      tag_14\n      swap2\n      swap1\n      tag_15\n      jump\t// in\n    tag_14:\n      mload(0x40)\n      dup1\n      swap2\n      sub\n      swap1\n      return\n        /* \"contracts/GuardedInit.sol\":1053:1097  DeploymentGuardian public immutable guardian */\n    tag_5:\n      tag_16\n      tag_17\n      jump\t// in\n    tag_16:\n      mload(0x40)\n      tag_18\n      swap2\n      swap1\n      tag_19\n      jump\t// in\n    tag_18:\n      mload(0x40)\n      dup1\n      swap2\n      sub\n      swap1\n      return\n        /* \"contracts/GuardedInit.sol\":2572:2907  function initialize(address _admin) external {... */\n    tag_6:\n      tag_20\n      0x04\n      dup1\n      calldatasize\n      sub\n      dup2\n      add\n      swap1\n      tag_21\n      swap2\n      swap1\n      tag_22\n      jump\t// in\n    tag_21:\n      tag_23\n      jump\t// in\n    tag_20:\n      stop\n        /* \"contracts/GuardedInit.sol\":1027:1047  address public admin */\n    tag_7:\n      tag_24\n      tag_25\n      jump\t// in\n    tag_24:\n      mload(0x40)\n      tag_26\n      swap2\n      swap1\n      tag_27\n      jump\t// in\n    tag_26:\n      mload(0x40)\n      dup1\n      swap2\n      sub\n      swap1\n      return\n        /* \"contracts/GuardedInit.sol\":3069:3231  function adminOnlyFunction() external view returns (string memory) {... */\n    tag_9:\n        /* \"contracts/GuardedInit.sol\":3121:3134  string memory */\n      0x60\n        /* \"contracts/GuardedInit.sol\":3168:3173  admin */\n      0x00\n      0x01\n      swap1\n      sload\n      swap1\n      0x0100\n      exp\n      swap1\n      div\n      0xffffffffffffffffffffffffffffffffffffffff\n      and\n        /* \"contracts/GuardedInit.sol\":3154:3173  msg.sender == admin */\n      0xffffffffffffffffffffffffffffffffffffffff\n      and\n        /* \"contracts/GuardedInit.sol\":3154:3164  msg.sender */\n      caller\n        /* \"contracts/GuardedInit.sol\":3154:3173  msg.sender == admin */\n      0xffffffffffffffffffffffffffffffffffffffff\n      and\n      eq\n        /* \"contracts/GuardedInit.sol\":3146:3187  require(msg.sender == admin, \"NOT_ADMIN\") */\n      tag_29\n      jumpi\n      mload(0x40)\n      0x08c379a000000000000000000000000000000000000000000000000000000000\n      dup2\n      mstore\n      0x04\n      add\n      tag_30\n      swap1\n      tag_31\n      jump\t// in\n    tag_30:\n      mload(0x40)\n      dup1\n      swap2\n      sub\n      swap1\n      revert\n    tag_29:\n        /* \"contracts/GuardedInit.sol\":3197:3224  return \"You are the admin!\" */\n      mload(0x40)\n      dup1\n      0x40\n      add\n      0x40\n      mstore\n      dup1\n      0x12\n      dup2\n      mstore\n      0x20\n      add\n      0x596f7520617265207468652061646d696e210000000000000000000000000000\n      dup2\n      mstore\n      pop\n      swap1\n      pop\n        /* \"contracts/GuardedInit.sol\":3069:3231  function adminOnlyFunction() external view returns (string memory) {... */\n      swap1\n      jump\t// out\n        /* \"contracts/GuardedInit.sol\":998:1021  bool public initialized */\n    tag_13:\n      0x00\n      dup1\n      sload\n      swap1\n      0x0100\n      exp\n      swap1\n      div\n      0xff\n      and\n      dup2\n      jump\t// out\n        /* \"contracts/GuardedInit.sol\":1053:1097  DeploymentGuardian public immutable guardian */\n    tag_17:\n      immutable(\"0x360f73c63c063fae5d1e9ead454a4836ec470b54de0960f05909b7f8c7c140ba\")\n      dup2\n      jump\t// out\n        /* \"contracts/GuardedInit.sol\":2572:2907  function initialize(address _admin) external {... */\n    tag_23:\n        /* \"contracts/GuardedInit.sol\":2636:2647  initialized */\n      0x00\n      dup1\n      sload\n      swap1\n      0x0100\n      exp\n      swap1\n      div\n      0xff\n      and\n        /* \"contracts/GuardedInit.sol\":2635:2647  !initialized */\n      iszero\n        /* \"contracts/GuardedInit.sol\":2627:2671  require(!initialized, \"ALREADY_INITIALIZED\") */\n      tag_33\n      jumpi\n      mload(0x40)\n      0x08c379a000000000000000000000000000000000000000000000000000000000\n      dup2\n      mstore\n      0x04\n      add\n      tag_34\n      swap1\n      tag_35\n      jump\t// in\n    tag_34:\n      mload(0x40)\n      dup1\n      swap2\n      sub\n      swap1\n      revert\n    tag_33:\n        /* \"contracts/GuardedInit.sol\":2707:2708  0 */\n      0x00\n        /* \"contracts/GuardedInit.sol\":2689:2709  _admin != address(0) */\n      0xffffffffffffffffffffffffffffffffffffffff\n      and\n        /* \"contracts/GuardedInit.sol\":2689:2695  _admin */\n      dup2\n        /* \"contracts/GuardedInit.sol\":2689:2709  _admin != address(0) */\n      0xffffffffffffffffffffffffffffffffffffffff\n      and\n      sub\n        /* \"contracts/GuardedInit.sol\":2681:2724  require(_admin != address(0), \"ADMIN_ZERO\") */\n      tag_36\n      jumpi\n      mload(0x40)\n      0x08c379a000000000000000000000000000000000000000000000000000000000\n      dup2\n      mstore\n      0x04\n      add\n      tag_37\n      swap1\n      tag_38\n      jump\t// in\n    tag_37:\n      mload(0x40)\n      dup1\n      swap2\n      sub\n      swap1\n      revert\n    tag_36:\n        /* \"contracts/GuardedInit.sol\":2742:2750  guardian */\n      immutable(\"0x360f73c63c063fae5d1e9ead454a4836ec470b54de0960f05909b7f8c7c140ba\")\n        /* \"contracts/GuardedInit.sol\":2742:2771  guardian.approvedInitializers */\n      0xffffffffffffffffffffffffffffffffffffffff\n      and\n      0x39323400\n        /* \"contracts/GuardedInit.sol\":2772:2782  msg.sender */\n      caller\n        /* \"contracts/GuardedInit.sol\":2742:2783  guardian.approvedInitializers(msg.sender) */\n      mload(0x40)\n      dup3\n      0xffffffff\n      and\n      0xe0\n      shl\n      dup2\n      mstore\n      0x04\n      add\n      tag_39\n      swap2\n      swap1\n      tag_27\n      jump\t// in\n    tag_39:\n      0x20\n      mload(0x40)\n      dup1\n      dup4\n      sub\n      dup2\n      dup7\n      gas\n      staticcall\n      iszero\n      dup1\n      iszero\n      tag_41\n      jumpi\n      returndatasize\n      0x00\n      dup1\n      returndatacopy\n      revert(0x00, returndatasize)\n    tag_41:\n      pop\n      pop\n      pop\n      pop\n      mload(0x40)\n      returndatasize\n      not(0x1f)\n      0x1f\n      dup3\n      add\n      and\n      dup3\n      add\n      dup1\n      0x40\n      mstore\n      pop\n      dup2\n      add\n      swap1\n      tag_42\n      swap2\n      swap1\n      tag_43\n      jump\t// in\n    tag_42:\n        /* \"contracts/GuardedInit.sol\":2734:2800  require(guardian.approvedInitializers(msg.sender), \"NOT_APPROVED\") */\n      tag_44\n      jumpi\n      mload(0x40)\n      0x08c379a000000000000000000000000000000000000000000000000000000000\n      dup2\n      mstore\n      0x04\n      add\n      tag_45\n      swap1\n      tag_46\n      jump\t// in\n    tag_45:\n      mload(0x40)\n      dup1\n      swap2\n      sub\n      swap1\n      revert\n    tag_44:\n        /* \"contracts/GuardedInit.sol\":2819:2825  _admin */\n      dup1\n        /* \"contracts/GuardedInit.sol\":2811:2816  admin */\n      0x00\n      0x01\n        /* \"contracts/GuardedInit.sol\":2811:2825  admin = _admin */\n      0x0100\n      exp\n      dup2\n      sload\n      dup2\n      0xffffffffffffffffffffffffffffffffffffffff\n      mul\n      not\n      and\n      swap1\n      dup4\n      0xffffffffffffffffffffffffffffffffffffffff\n      and\n      mul\n      or\n      swap1\n      sstore\n      pop\n        /* \"contracts/GuardedInit.sol\":2849:2853  true */\n      0x01\n        /* \"contracts/GuardedInit.sol\":2835:2846  initialized */\n      0x00\n      dup1\n        /* \"contracts/GuardedInit.sol\":2835:2853  initialized = true */\n      0x0100\n      exp\n      dup2\n      sload\n      dup2\n      0xff\n      mul\n      not\n      and\n      swap1\n      dup4\n      iszero\n      iszero\n      mul\n      or\n      swap1\n      sstore\n      pop\n        /* \"contracts/GuardedInit.sol\":2889:2899  msg.sender */\n      caller\n        /* \"contracts/GuardedInit.sol\":2869:2900  Initialized(_admin, msg.sender) */\n      0xffffffffffffffffffffffffffffffffffffffff\n      and\n        /* \"contracts/GuardedInit.sol\":2881:2887  _admin */\n      dup2\n        /* \"contracts/GuardedInit.sol\":2869:2900  Initialized(_admin, msg.sender) */\n      0xffffffffffffffffffffffffffffffffffffffff\n      and\n      0x3cd5ec01b1ae7cfec6ca1863e2cd6aa25d6d1702825803ff2b7cc95010fffdc2\n      mload(0x40)\n      mload(0x40)\n      dup1\n      swap2\n      sub\n      swap1\n      log3\n        /* \"contracts/GuardedInit.sol\":2572:2907  function initialize(address _admin) external {... */\n      pop\n      jump\t// out\n        /* \"contracts/GuardedInit.sol\":1027:1047  address public admin */\n    tag_25:\n      0x00\n      0x01\n      swap1\n      sload\n      swap1\n      0x0100\n      exp\n      swap1\n      div\n      0xffffffffffffffffffffffffffffffffffffffff\n      and\n      dup2\n      jump\t// out\n        /* \"#utility.yul\":7:106   */\n    tag_47:\n        /* \"#utility.yul\":59:65   */\n      0x00\n        /* \"#utility.yul\":93:98   */\n      dup2\n        /* \"#utility.yul\":87:99   */\n      mload\n        /* \"#utility.yul\":77:99   */\n      swap1\n      pop\n        /* \"#utility.yul\":7:106   */\n      swap2\n      swap1\n      pop\n      jump\t// out\n        /* \"#utility.yul\":112:281   */\n    tag_48:\n        /* \"#utility.yul\":196:207   */\n      0x00\n        /* \"#utility.yul\":230:236   */\n      dup3\n        /* \"#utility.yul\":225:228   */\n      dup3\n        /* \"#utility.yul\":218:237   */\n      mstore\n        /* \"#utility.yul\":270:274   */\n      0x20\n        /* \"#utility.yul\":265:268   */\n      dup3\n        /* \"#utility.yul\":261:275   */\n      add\n        /* \"#utility.yul\":246:275   */\n      swap1\n      pop\n        /* \"#utility.yul\":112:281   */\n      swap3\n      swap2\n      pop\n      pop\n      jump\t// out\n        /* \"#utility.yul\":287:533   */\n    tag_49:\n        /* \"#utility.yul\":368:369   */\n      0x00\n        /* \"#utility.yul\":378:491   */\n    tag_81:\n        /* \"#utility.yul\":392:398   */\n      dup4\n        /* \"#utility.yul\":389:390   */\n      dup2\n        /* \"#utility.yul\":386:399   */\n      lt\n        /* \"#utility.yul\":378:491   */\n      iszero\n      tag_83\n      jumpi\n        /* \"#utility.yul\":477:478   */\n      dup1\n        /* \"#utility.yul\":472:475   */\n      dup3\n        /* \"#utility.yul\":468:479   */\n      add\n        /* \"#utility.yul\":462:480   */\n      mload\n        /* \"#utility.yul\":458:459   */\n      dup2\n        /* \"#utility.yul\":453:456   */\n      dup5\n        /* \"#utility.yul\":449:460   */\n      add\n        /* \"#utility.yul\":442:481   */\n      mstore\n        /* \"#utility.yul\":414:416   */\n      0x20\n        /* \"#utility.yul\":411:412   */\n      dup2\n        /* \"#utility.yul\":407:417   */\n      add\n        /* \"#utility.yul\":402:417   */\n      swap1\n      pop\n        /* \"#utility.yul\":378:491   */\n      jump(tag_81)\n    tag_83:\n        /* \"#utility.yul\":525:526   */\n      0x00\n        /* \"#utility.yul\":516:522   */\n      dup5\n        /* \"#utility.yul\":511:514   */\n      dup5\n        /* \"#utility.yul\":507:523   */\n      add\n        /* \"#utility.yul\":500:527   */\n      mstore\n        /* \"#utility.yul\":349:533   */\n      pop\n        /* \"#utility.yul\":287:533   */\n      pop\n      pop\n      pop\n      jump\t// out\n        /* \"#utility.yul\":539:641   */\n    tag_50:\n        /* \"#utility.yul\":580:586   */\n      0x00\n        /* \"#utility.yul\":631:633   */\n      0x1f\n        /* \"#utility.yul\":627:634   */\n      not\n        /* \"#utility.yul\":622:624   */\n      0x1f\n        /* \"#utility.yul\":615:620   */\n      dup4\n        /* \"#utility.yul\":611:625   */\n      add\n        /* \"#utility.yul\":607:635   */\n      and\n        /* \"#utility.yul\":597:635   */\n      swap1\n      pop\n        /* \"#utility.yul\":539:641   */\n      swap2\n      swap1\n      pop\n      jump\t// out\n        /* \"#utility.yul\":647:1024   */\n    tag_51:\n        /* \"#utility.yul\":735:738   */\n      0x00\n        /* \"#utility.yul\":763:802   */\n      tag_86\n        /* \"#utility.yul\":796:801   */\n      dup3\n        /* \"#utility.yul\":763:802   */\n      tag_47\n      jump\t// in\n    tag_86:\n        /* \"#utility.yul\":818:889   */\n      tag_87\n        /* \"#utility.yul\":882:888   */\n      dup2\n        /* \"#utility.yul\":877:880   */\n      dup6\n        /* \"#utility.yul\":818:889   */\n      tag_48\n      jump\t// in\n    tag_87:\n        /* \"#utility.yul\":811:889   */\n      swap4\n      pop\n        /* \"#utility.yul\":898:963   */\n      tag_88\n        /* \"#utility.yul\":956:962   */\n      dup2\n        /* \"#utility.yul\":951:954   */\n      dup6\n        /* \"#utility.yul\":944:948   */\n      0x20\n        /* \"#utility.yul\":937:942   */\n      dup7\n        /* \"#utility.yul\":933:949   */\n      add\n        /* \"#utility.yul\":898:963   */\n      tag_49\n      jump\t// in\n    tag_88:\n        /* \"#utility.yul\":988:1017   */\n      tag_89\n        /* \"#utility.yul\":1010:1016   */\n      dup2\n        /* \"#utility.yul\":988:1017   */\n      tag_50\n      jump\t// in\n    tag_89:\n        /* \"#utility.yul\":983:986   */\n      dup5\n        /* \"#utility.yul\":979:1018   */\n      add\n        /* \"#utility.yul\":972:1018   */\n      swap2\n      pop\n        /* \"#utility.yul\":739:1024   */\n      pop\n        /* \"#utility.yul\":647:1024   */\n      swap3\n      swap2\n      pop\n      pop\n      jump\t// out\n        /* \"#utility.yul\":1030:1343   */\n    tag_11:\n        /* \"#utility.yul\":1143:1147   */\n      0x00\n        /* \"#utility.yul\":1181:1183   */\n      0x20\n        /* \"#utility.yul\":1170:1179   */\n      dup3\n        /* \"#utility.yul\":1166:1184   */\n      add\n        /* \"#utility.yul\":1158:1184   */\n      swap1\n      pop\n        /* \"#utility.yul\":1230:1239   */\n      dup2\n        /* \"#utility.yul\":1224:1228   */\n      dup2\n        /* \"#utility.yul\":1220:1240   */\n      sub\n        /* \"#utility.yul\":1216:1217   */\n      0x00\n        /* \"#utility.yul\":1205:1214   */\n      dup4\n        /* \"#utility.yul\":1201:1218   */\n      add\n        /* \"#utility.yul\":1194:1241   */\n      mstore\n        /* \"#utility.yul\":1258:1336   */\n      tag_91\n        /* \"#utility.yul\":1331:1335   */\n      dup2\n        /* \"#utility.yul\":1322:1328   */\n      dup5\n        /* \"#utility.yul\":1258:1336   */\n      tag_51\n      jump\t// in\n    tag_91:\n        /* \"#utility.yul\":1250:1336   */\n      swap1\n      pop\n        /* \"#utility.yul\":1030:1343   */\n      swap3\n      swap2\n      pop\n      pop\n      jump\t// out\n        /* \"#utility.yul\":1349:1439   */\n    tag_52:\n        /* \"#utility.yul\":1383:1390   */\n      0x00\n        /* \"#utility.yul\":1426:1431   */\n      dup2\n        /* \"#utility.yul\":1419:1432   */\n      iszero\n        /* \"#utility.yul\":1412:1433   */\n      iszero\n        /* \"#utility.yul\":1401:1433   */\n      swap1\n      pop\n        /* \"#utility.yul\":1349:1439   */\n      swap2\n      swap1\n      pop\n      jump\t// out\n        /* \"#utility.yul\":1445:1554   */\n    tag_53:\n        /* \"#utility.yul\":1526:1547   */\n      tag_94\n        /* \"#utility.yul\":1541:1546   */\n      dup2\n        /* \"#utility.yul\":1526:1547   */\n      tag_52\n      jump\t// in\n    tag_94:\n        /* \"#utility.yul\":1521:1524   */\n      dup3\n        /* \"#utility.yul\":1514:1548   */\n      mstore\n        /* \"#utility.yul\":1445:1554   */\n      pop\n      pop\n      jump\t// out\n        /* \"#utility.yul\":1560:1770   */\n    tag_15:\n        /* \"#utility.yul\":1647:1651   */\n      0x00\n        /* \"#utility.yul\":1685:1687   */\n      0x20\n        /* \"#utility.yul\":1674:1683   */\n      dup3\n        /* \"#utility.yul\":1670:1688   */\n      add\n        /* \"#utility.yul\":1662:1688   */\n      swap1\n      pop\n        /* \"#utility.yul\":1698:1763   */\n      tag_96\n        /* \"#utility.yul\":1760:1761   */\n      0x00\n        /* \"#utility.yul\":1749:1758   */\n      dup4\n        /* \"#utility.yul\":1745:1762   */\n      add\n        /* \"#utility.yul\":1736:1742   */\n      dup5\n        /* \"#utility.yul\":1698:1763   */\n      tag_53\n      jump\t// in\n    tag_96:\n        /* \"#utility.yul\":1560:1770   */\n      swap3\n      swap2\n      pop\n      pop\n      jump\t// out\n        /* \"#utility.yul\":1776:1902   */\n    tag_54:\n        /* \"#utility.yul\":1813:1820   */\n      0x00\n        /* \"#utility.yul\":1853:1895   */\n      0xffffffffffffffffffffffffffffffffffffffff\n        /* \"#utility.yul\":1846:1851   */\n      dup3\n        /* \"#utility.yul\":1842:1896   */\n      and\n        /* \"#utility.yul\":1831:1896   */\n      swap1\n      pop\n        /* \"#utility.yul\":1776:1902   */\n      swap2\n      swap1\n      pop\n      jump\t// out\n        /* \"#utility.yul\":1908:1968   */\n    tag_55:\n        /* \"#utility.yul\":1936:1939   */\n      0x00\n        /* \"#utility.yul\":1957:1962   */\n      dup2\n        /* \"#utility.yul\":1950:1962   */\n      swap1\n      pop\n        /* \"#utility.yul\":1908:1968   */\n      swap2\n      swap1\n      pop\n      jump\t// out\n        /* \"#utility.yul\":1974:2116   */\n    tag_56:\n        /* \"#utility.yul\":2024:2033   */\n      0x00\n        /* \"#utility.yul\":2057:2110   */\n      tag_100\n        /* \"#utility.yul\":2075:2109   */\n      tag_101\n        /* \"#utility.yul\":2084:2108   */\n      tag_102\n        /* \"#utility.yul\":2102:2107   */\n      dup5\n        /* \"#utility.yul\":2084:2108   */\n      tag_54\n      jump\t// in\n    tag_102:\n        /* \"#utility.yul\":2075:2109   */\n      tag_55\n      jump\t// in\n    tag_101:\n        /* \"#utility.yul\":2057:2110   */\n      tag_54\n      jump\t// in\n    tag_100:\n        /* \"#utility.yul\":2044:2110   */\n      swap1\n      pop\n        /* \"#utility.yul\":1974:2116   */\n      swap2\n      swap1\n      pop\n      jump\t// out\n        /* \"#utility.yul\":2122:2248   */\n    tag_57:\n        /* \"#utility.yul\":2172:2181   */\n      0x00\n        /* \"#utility.yul\":2205:2242   */\n      tag_104\n        /* \"#utility.yul\":2236:2241   */\n      dup3\n        /* \"#utility.yul\":2205:2242   */\n      tag_56\n      jump\t// in\n    tag_104:\n        /* \"#utility.yul\":2192:2242   */\n      swap1\n      pop\n        /* \"#utility.yul\":2122:2248   */\n      swap2\n      swap1\n      pop\n      jump\t// out\n        /* \"#utility.yul\":2254:2406   */\n    tag_58:\n        /* \"#utility.yul\":2330:2339   */\n      0x00\n        /* \"#utility.yul\":2363:2400   */\n      tag_106\n        /* \"#utility.yul\":2394:2399   */\n      dup3\n        /* \"#utility.yul\":2363:2400   */\n      tag_57\n      jump\t// in\n    tag_106:\n        /* \"#utility.yul\":2350:2400   */\n      swap1\n      pop\n        /* \"#utility.yul\":2254:2406   */\n      swap2\n      swap1\n      pop\n      jump\t// out\n        /* \"#utility.yul\":2412:2595   */\n    tag_59:\n        /* \"#utility.yul\":2525:2588   */\n      tag_108\n        /* \"#utility.yul\":2582:2587   */\n      dup2\n        /* \"#utility.yul\":2525:2588   */\n      tag_58\n      jump\t// in\n    tag_108:\n        /* \"#utility.yul\":2520:2523   */\n      dup3\n        /* \"#utility.yul\":2513:2589   */\n      mstore\n        /* \"#utility.yul\":2412:2595   */\n      pop\n      pop\n      jump\t// out\n        /* \"#utility.yul\":2601:2875   */\n    tag_19:\n        /* \"#utility.yul\":2720:2724   */\n      0x00\n        /* \"#utility.yul\":2758:2760   */\n      0x20\n        /* \"#utility.yul\":2747:2756   */\n      dup3\n        /* \"#utility.yul\":2743:2761   */\n      add\n        /* \"#utility.yul\":2735:2761   */\n      swap1\n      pop\n        /* \"#utility.yul\":2771:2868   */\n      tag_110\n        /* \"#utility.yul\":2865:2866   */\n      0x00\n        /* \"#utility.yul\":2854:2863   */\n      dup4\n        /* \"#utility.yul\":2850:2867   */\n      add\n        /* \"#utility.yul\":2841:2847   */\n      dup5\n        /* \"#utility.yul\":2771:2868   */\n      tag_59\n      jump\t// in\n    tag_110:\n        /* \"#utility.yul\":2601:2875   */\n      swap3\n      swap2\n      pop\n      pop\n      jump\t// out\n        /* \"#utility.yul\":2962:3079   */\n    tag_61:\n        /* \"#utility.yul\":3071:3072   */\n      0x00\n        /* \"#utility.yul\":3068:3069   */\n      dup1\n        /* \"#utility.yul\":3061:3073   */\n      revert\n        /* \"#utility.yul\":3208:3304   */\n    tag_63:\n        /* \"#utility.yul\":3245:3252   */\n      0x00\n        /* \"#utility.yul\":3274:3298   */\n      tag_115\n        /* \"#utility.yul\":3292:3297   */\n      dup3\n        /* \"#utility.yul\":3274:3298   */\n      tag_54\n      jump\t// in\n    tag_115:\n        /* \"#utility.yul\":3263:3298   */\n      swap1\n      pop\n        /* \"#utility.yul\":3208:3304   */\n      swap2\n      swap1\n      pop\n      jump\t// out\n        /* \"#utility.yul\":3310:3432   */\n    tag_64:\n        /* \"#utility.yul\":3383:3407   */\n      tag_117\n        /* \"#utility.yul\":3401:3406   */\n      dup2\n        /* \"#utility.yul\":3383:3407   */\n      tag_63\n      jump\t// in\n    tag_117:\n        /* \"#utility.yul\":3376:3381   */\n      dup2\n        /* \"#utility.yul\":3373:3408   */\n      eq\n        /* \"#utility.yul\":3363:3426   */\n      tag_118\n      jumpi\n        /* \"#utility.yul\":3422:3423   */\n      0x00\n        /* \"#utility.yul\":3419:3420   */\n      dup1\n        /* \"#utility.yul\":3412:3424   */\n      revert\n        /* \"#utility.yul\":3363:3426   */\n    tag_118:\n        /* \"#utility.yul\":3310:3432   */\n      pop\n      jump\t// out\n        /* \"#utility.yul\":3438:3577   */\n    tag_65:\n        /* \"#utility.yul\":3484:3489   */\n      0x00\n        /* \"#utility.yul\":3522:3528   */\n      dup2\n        /* \"#utility.yul\":3509:3529   */\n      calldataload\n        /* \"#utility.yul\":3500:3529   */\n      swap1\n      pop\n        /* \"#utility.yul\":3538:3571   */\n      tag_120\n        /* \"#utility.yul\":3565:3570   */\n      dup2\n        /* \"#utility.yul\":3538:3571   */\n      tag_64\n      jump\t// in\n    tag_120:\n        /* \"#utility.yul\":3438:3577   */\n      swap3\n      swap2\n      pop\n      pop\n      jump\t// out\n        /* \"#utility.yul\":3583:3912   */\n    tag_22:\n        /* \"#utility.yul\":3642:3648   */\n      0x00\n        /* \"#utility.yul\":3691:3693   */\n      0x20\n        /* \"#utility.yul\":3679:3688   */\n      dup3\n        /* \"#utility.yul\":3670:3677   */\n      dup5\n        /* \"#utility.yul\":3666:3689   */\n      sub\n        /* \"#utility.yul\":3662:3694   */\n      slt\n        /* \"#utility.yul\":3659:3778   */\n      iszero\n      tag_122\n      jumpi\n        /* \"#utility.yul\":3697:3776   */\n      tag_123\n      tag_61\n      jump\t// in\n    tag_123:\n        /* \"#utility.yul\":3659:3778   */\n    tag_122:\n        /* \"#utility.yul\":3817:3818   */\n      0x00\n        /* \"#utility.yul\":3842:3895   */\n      tag_124\n        /* \"#utility.yul\":3887:3894   */\n      dup5\n        /* \"#utility.yul\":3878:3884   */\n      dup3\n        /* \"#utility.yul\":3867:3876   */\n      dup6\n        /* \"#utility.yul\":3863:3885   */\n      add\n        /* \"#utility.yul\":3842:3895   */\n      tag_65\n      jump\t// in\n    tag_124:\n        /* \"#utility.yul\":3832:3895   */\n      swap2\n      pop\n        /* \"#utility.yul\":3788:3905   */\n      pop\n        /* \"#utility.yul\":3583:3912   */\n      swap3\n      swap2\n      pop\n      pop\n      jump\t// out\n        /* \"#utility.yul\":3918:4036   */\n    tag_66:\n        /* \"#utility.yul\":4005:4029   */\n      tag_126\n        /* \"#utility.yul\":4023:4028   */\n      dup2\n        /* \"#utility.yul\":4005:4029   */\n      tag_63\n      jump\t// in\n    tag_126:\n        /* \"#utility.yul\":4000:4003   */\n      dup3\n        /* \"#utility.yul\":3993:4030   */\n      mstore\n        /* \"#utility.yul\":3918:4036   */\n      pop\n      pop\n      jump\t// out\n        /* \"#utility.yul\":4042:4264   */\n    tag_27:\n        /* \"#utility.yul\":4135:4139   */\n      0x00\n        /* \"#utility.yul\":4173:4175   */\n      0x20\n        /* \"#utility.yul\":4162:4171   */\n      dup3\n        /* \"#utility.yul\":4158:4176   */\n      add\n        /* \"#utility.yul\":4150:4176   */\n      swap1\n      pop\n        /* \"#utility.yul\":4186:4257   */\n      tag_128\n        /* \"#utility.yul\":4254:4255   */\n      0x00\n        /* \"#utility.yul\":4243:4252   */\n      dup4\n        /* \"#utility.yul\":4239:4256   */\n      add\n        /* \"#utility.yul\":4230:4236   */\n      dup5\n        /* \"#utility.yul\":4186:4257   */\n      tag_66\n      jump\t// in\n    tag_128:\n        /* \"#utility.yul\":4042:4264   */\n      swap3\n      swap2\n      pop\n      pop\n      jump\t// out\n        /* \"#utility.yul\":4270:4429   */\n    tag_67:\n        /* \"#utility.yul\":4410:4421   */\n      0x4e4f545f41444d494e0000000000000000000000000000000000000000000000\n        /* \"#utility.yul\":4406:4407   */\n      0x00\n        /* \"#utility.yul\":4398:4404   */\n      dup3\n        /* \"#utility.yul\":4394:4408   */\n      add\n        /* \"#utility.yul\":4387:4422   */\n      mstore\n        /* \"#utility.yul\":4270:4429   */\n      pop\n      jump\t// out\n        /* \"#utility.yul\":4435:4800   */\n    tag_68:\n        /* \"#utility.yul\":4577:4580   */\n      0x00\n        /* \"#utility.yul\":4598:4664   */\n      tag_131\n        /* \"#utility.yul\":4662:4663   */\n      0x09\n        /* \"#utility.yul\":4657:4660   */\n      dup4\n        /* \"#utility.yul\":4598:4664   */\n      tag_48\n      jump\t// in\n    tag_131:\n        /* \"#utility.yul\":4591:4664   */\n      swap2\n      pop\n        /* \"#utility.yul\":4673:4766   */\n      tag_132\n        /* \"#utility.yul\":4762:4765   */\n      dup3\n        /* \"#utility.yul\":4673:4766   */\n      tag_67\n      jump\t// in\n    tag_132:\n        /* \"#utility.yul\":4791:4793   */\n      0x20\n        /* \"#utility.yul\":4786:4789   */\n      dup3\n        /* \"#utility.yul\":4782:4794   */\n      add\n        /* \"#utility.yul\":4775:4794   */\n      swap1\n      pop\n        /* \"#utility.yul\":4435:4800   */\n      swap2\n      swap1\n      pop\n      jump\t// out\n        /* \"#utility.yul\":4806:5225   */\n    tag_31:\n        /* \"#utility.yul\":4972:4976   */\n      0x00\n        /* \"#utility.yul\":5010:5012   */\n      0x20\n        /* \"#utility.yul\":4999:5008   */\n      dup3\n        /* \"#utility.yul\":4995:5013   */\n      add\n        /* \"#utility.yul\":4987:5013   */\n      swap1\n      pop\n        /* \"#utility.yul\":5059:5068   */\n      dup2\n        /* \"#utility.yul\":5053:5057   */\n      dup2\n        /* \"#utility.yul\":5049:5069   */\n      sub\n        /* \"#utility.yul\":5045:5046   */\n      0x00\n        /* \"#utility.yul\":5034:5043   */\n      dup4\n        /* \"#utility.yul\":5030:5047   */\n      add\n        /* \"#utility.yul\":5023:5070   */\n      mstore\n        /* \"#utility.yul\":5087:5218   */\n      tag_134\n        /* \"#utility.yul\":5213:5217   */\n      dup2\n        /* \"#utility.yul\":5087:5218   */\n      tag_68\n      jump\t// in\n    tag_134:\n        /* \"#utility.yul\":5079:5218   */\n      swap1\n      pop\n        /* \"#utility.yul\":4806:5225   */\n      swap2\n      swap1\n      pop\n      jump\t// out\n        /* \"#utility.yul\":5231:5400   */\n    tag_69:\n        /* \"#utility.yul\":5371:5392   */\n      0x414c52454144595f494e495449414c495a454400000000000000000000000000\n        /* \"#utility.yul\":5367:5368   */\n      0x00\n        /* \"#utility.yul\":5359:5365   */\n      dup3\n        /* \"#utility.yul\":5355:5369   */\n      add\n        /* \"#utility.yul\":5348:5393   */\n      mstore\n        /* \"#utility.yul\":5231:5400   */\n      pop\n      jump\t// out\n        /* \"#utility.yul\":5406:5772   */\n    tag_70:\n        /* \"#utility.yul\":5548:5551   */\n      0x00\n        /* \"#utility.yul\":5569:5636   */\n      tag_137\n        /* \"#utility.yul\":5633:5635   */\n      0x13\n        /* \"#utility.yul\":5628:5631   */\n      dup4\n        /* \"#utility.yul\":5569:5636   */\n      tag_48\n      jump\t// in\n    tag_137:\n        /* \"#utility.yul\":5562:5636   */\n      swap2\n      pop\n        /* \"#utility.yul\":5645:5738   */\n      tag_138\n        /* \"#utility.yul\":5734:5737   */\n      dup3\n        /* \"#utility.yul\":5645:5738   */\n      tag_69\n      jump\t// in\n    tag_138:\n        /* \"#utility.yul\":5763:5765   */\n      0x20\n        /* \"#utility.yul\":5758:5761   */\n      dup3\n        /* \"#utility.yul\":5754:5766   */\n      add\n        /* \"#utility.yul\":5747:5766   */\n      swap1\n      pop\n        /* \"#utility.yul\":5406:5772   */\n      swap2\n      swap1\n      pop\n      jump\t// out\n        /* \"#utility.yul\":5778:6197   */\n    tag_35:\n        /* \"#utility.yul\":5944:5948   */\n      0x00\n        /* \"#utility.yul\":5982:5984   */\n      0x20\n        /* \"#utility.yul\":5971:5980   */\n      dup3\n        /* \"#utility.yul\":5967:5985   */\n      add\n        /* \"#utility.yul\":5959:5985   */\n      swap1\n      pop\n        /* \"#utility.yul\":6031:6040   */\n      dup2\n        /* \"#utility.yul\":6025:6029   */\n      dup2\n        /* \"#utility.yul\":6021:6041   */\n      sub\n        /* \"#utility.yul\":6017:6018   */\n      0x00\n        /* \"#utility.yul\":6006:6015   */\n      dup4\n        /* \"#utility.yul\":6002:6019   */\n      add\n        /* \"#utility.yul\":5995:6042   */\n      mstore\n        /* \"#utility.yul\":6059:6190   */\n      tag_140\n        /* \"#utility.yul\":6185:6189   */\n      dup2\n        /* \"#utility.yul\":6059:6190   */\n      tag_70\n      jump\t// in\n    tag_140:\n        /* \"#utility.yul\":6051:6190   */\n      swap1\n      pop\n        /* \"#utility.yul\":5778:6197   */\n      swap2\n      swap1\n      pop\n      jump\t// out\n        /* \"#utility.yul\":6203:6363   */\n    tag_71:\n        /* \"#utility.yul\":6343:6355   */\n      0x41444d494e5f5a45524f00000000000000000000000000000000000000000000\n        /* \"#utility.yul\":6339:6340   */\n      0x00\n        /* \"#utility.yul\":6331:6337   */\n      dup3\n        /* \"#utility.yul\":6327:6341   */\n      add\n        /* \"#utility.yul\":6320:6356   */\n      mstore\n        /* \"#utility.yul\":6203:6363   */\n      pop\n      jump\t// out\n        /* \"#utility.yul\":6369:6735   */\n    tag_72:\n        /* \"#utility.yul\":6511:6514   */\n      0x00\n        /* \"#utility.yul\":6532:6599   */\n      tag_143\n        /* \"#utility.yul\":6596:6598   */\n      0x0a\n        /* \"#utility.yul\":6591:6594   */\n      dup4\n        /* \"#utility.yul\":6532:6599   */\n      tag_48\n      jump\t// in\n    tag_143:\n        /* \"#utility.yul\":6525:6599   */\n      swap2\n      pop\n        /* \"#utility.yul\":6608:6701   */\n      tag_144\n        /* \"#utility.yul\":6697:6700   */\n      dup3\n        /* \"#utility.yul\":6608:6701   */\n      tag_71\n      jump\t// in\n    tag_144:\n        /* \"#utility.yul\":6726:6728   */\n      0x20\n        /* \"#utility.yul\":6721:6724   */\n      dup3\n        /* \"#utility.yul\":6717:6729   */\n      add\n        /* \"#utility.yul\":6710:6729   */\n      swap1\n      pop\n        /* \"#utility.yul\":6369:6735   */\n      swap2\n      swap1\n      pop\n      jump\t// out\n        /* \"#utility.yul\":6741:7160   */\n    tag_38:\n        /* \"#utility.yul\":6907:6911   */\n      0x00\n        /* \"#utility.yul\":6945:6947   */\n      0x20\n        /* \"#utility.yul\":6934:6943   */\n      dup3\n        /* \"#utility.yul\":6930:6948   */\n      add\n        /* \"#utility.yul\":6922:6948   */\n      swap1\n      pop\n        /* \"#utility.yul\":6994:7003   */\n      dup2\n        /* \"#utility.yul\":6988:6992   */\n      dup2\n        /* \"#utility.yul\":6984:7004   */\n      sub\n        /* \"#utility.yul\":6980:6981   */\n      0x00\n        /* \"#utility.yul\":6969:6978   */\n      dup4\n        /* \"#utility.yul\":6965:6982   */\n      add\n        /* \"#utility.yul\":6958:7005   */\n      mstore\n        /* \"#utility.yul\":7022:7153   */\n      tag_146\n        /* \"#utility.yul\":7148:7152   */\n      dup2\n        /* \"#utility.yul\":7022:7153   */\n      tag_72\n      jump\t// in\n    tag_146:\n        /* \"#utility.yul\":7014:7153   */\n      swap1\n      pop\n        /* \"#utility.yul\":6741:7160   */\n      swap2\n      swap1\n      pop\n      jump\t// out\n        /* \"#utility.yul\":7166:7282   */\n    tag_73:\n        /* \"#utility.yul\":7236:7257   */\n      tag_148\n        /* \"#utility.yul\":7251:7256   */\n      dup2\n        /* \"#utility.yul\":7236:7257   */\n      tag_52\n      jump\t// in\n    tag_148:\n        /* \"#utility.yul\":7229:7234   */\n      dup2\n        /* \"#utility.yul\":7226:7258   */\n      eq\n        /* \"#utility.yul\":7216:7276   */\n      tag_149\n      jumpi\n        /* \"#utility.yul\":7272:7273   */\n      0x00\n        /* \"#utility.yul\":7269:7270   */\n      dup1\n        /* \"#utility.yul\":7262:7274   */\n      revert\n        /* \"#utility.yul\":7216:7276   */\n    tag_149:\n        /* \"#utility.yul\":7166:7282   */\n      pop\n      jump\t// out\n        /* \"#utility.yul\":7288:7425   */\n    tag_74:\n        /* \"#utility.yul\":7342:7347   */\n      0x00\n        /* \"#utility.yul\":7373:7379   */\n      dup2\n        /* \"#utility.yul\":7367:7380   */\n      mload\n        /* \"#utility.yul\":7358:7380   */\n      swap1\n      pop\n        /* \"#utility.yul\":7389:7419   */\n      tag_151\n        /* \"#utility.yul\":7413:7418   */\n      dup2\n        /* \"#utility.yul\":7389:7419   */\n      tag_73\n      jump\t// in\n    tag_151:\n        /* \"#utility.yul\":7288:7425   */\n      swap3\n      swap2\n      pop\n      pop\n      jump\t// out\n        /* \"#utility.yul\":7431:7776   */\n    tag_43:\n        /* \"#utility.yul\":7498:7504   */\n      0x00\n        /* \"#utility.yul\":7547:7549   */\n      0x20\n        /* \"#utility.yul\":7535:7544   */\n      dup3\n        /* \"#utility.yul\":7526:7533   */\n      dup5\n        /* \"#utility.yul\":7522:7545   */\n      sub\n        /* \"#utility.yul\":7518:7550   */\n      slt\n        /* \"#utility.yul\":7515:7634   */\n      iszero\n      tag_153\n      jumpi\n        /* \"#utility.yul\":7553:7632   */\n      tag_154\n      tag_61\n      jump\t// in\n    tag_154:\n        /* \"#utility.yul\":7515:7634   */\n    tag_153:\n        /* \"#utility.yul\":7673:7674   */\n      0x00\n        /* \"#utility.yul\":7698:7759   */\n      tag_155\n        /* \"#utility.yul\":7751:7758   */\n      dup5\n        /* \"#utility.yul\":7742:7748   */\n      dup3\n        /* \"#utility.yul\":7731:7740   */\n      dup6\n        /* \"#utility.yul\":7727:7749   */\n      add\n        /* \"#utility.yul\":7698:7759   */\n      tag_74\n      jump\t// in\n    tag_155:\n        /* \"#utility.yul\":7688:7759   */\n      swap2\n      pop\n        /* \"#utility.yul\":7644:7769   */\n      pop\n        /* \"#utility.yul\":7431:7776   */\n      swap3\n      swap2\n      pop\n      pop\n      jump\t// out\n        /* \"#utility.yul\":7782:7944   */\n    tag_75:\n        /* \"#utility.yul\":7922:7936   */\n      0x4e4f545f415050524f5645440000000000000000000000000000000000000000\n        /* \"#utility.yul\":7918:7919   */\n      0x00\n        /* \"#utility.yul\":7910:7916   */\n      dup3\n        /* \"#utility.yul\":7906:7920   */\n      add\n        /* \"#utility.yul\":7899:7937   */\n      mstore\n        /* \"#utility.yul\":7782:7944   */\n      pop\n      jump\t// out\n        /* \"#utility.yul\":7950:8316   */\n    tag_76:\n        /* \"#utility.yul\":8092:8095   */\n      0x00\n        /* \"#utility.yul\":8113:8180   */\n      tag_158\n        /* \"#utility.yul\":8177:8179   */\n      0x0c\n        /* \"#utility.yul\":8172:8175   */\n      dup4\n        /* \"#utility.yul\":8113:8180   */\n      tag_48\n      jump\t// in\n    tag_158:\n        /* \"#utility.yul\":8106:8180   */\n      swap2\n      pop\n        /* \"#utility.yul\":8189:8282   */\n      tag_159\n        /* \"#utility.yul\":8278:8281   */\n      dup3\n        /* \"#utility.yul\":8189:8282   */\n      tag_75\n      jump\t// in\n    tag_159:\n        /* \"#utility.yul\":8307:8309   */\n      0x20\n        /* \"#utility.yul\":8302:8305   */\n      dup3\n        /* \"#utility.yul\":8298:8310   */\n      add\n        /* \"#utility.yul\":8291:8310   */\n      swap1\n      pop\n        /* \"#utility.yul\":7950:8316   */\n      swap2\n      swap1\n      pop\n      jump\t// out\n        /* \"#utility.yul\":8322:8741   */\n    tag_46:\n        /* \"#utility.yul\":8488:8492   */\n      0x00\n        /* \"#utility.yul\":8526:8528   */\n      0x20\n        /* \"#utility.yul\":8515:8524   */\n      dup3\n        /* \"#utility.yul\":8511:8529   */\n      add\n        /* \"#utility.yul\":8503:8529   */\n      swap1\n      pop\n        /* \"#utility.yul\":8575:8584   */\n      dup2\n        /* \"#utility.yul\":8569:8573   */\n      dup2\n        /* \"#utility.yul\":8565:8585   */\n      sub\n        /* \"#utility.yul\":8561:8562   */\n      0x00\n        /* \"#utility.yul\":8550:8559   */\n      dup4\n        /* \"#utility.yul\":8546:8563   */\n      add\n        /* \"#utility.yul\":8539:8586   */\n      mstore\n        /* \"#utility.yul\":8603:8734   */\n      tag_161\n        /* \"#utility.yul\":8729:8733   */\n      dup2\n        /* \"#utility.yul\":8603:8734   */\n      tag_76\n      jump\t// in\n    tag_161:\n        /* \"#utility.yul\":8595:8734   */\n      swap1\n      pop\n        /* \"#utility.yul\":8322:8741   */\n      swap2\n      swap1\n      pop\n      jump\t// out\n\n    auxdata: 0xa26469706673582212201b1e1481c0a13fe797dbd30480a3cfa362a6dedc2e25ea13c2cde20dced6b77a64736f6c63430008140033\n}\n",
				"bytecode": {
					"linkReferences": {},
					"object": "60a060405234801561000f575f80fd5b50604051610a80380380610a8083398181016040528101906100319190610137565b5f73ffffffffffffffffffffffffffffffffffffffff168173ffffffffffffffffffffffffffffffffffffffff160361009f576040517f08c379a0000000000000000000000000000000000000000000000000000000008152600401610096906101bc565b60405180910390fd5b8073ffffffffffffffffffffffffffffffffffffffff1660808173ffffffffffffffffffffffffffffffffffffffff1681525050506101da565b5f80fd5b5f73ffffffffffffffffffffffffffffffffffffffff82169050919050565b5f610106826100dd565b9050919050565b610116816100fc565b8114610120575f80fd5b50565b5f815190506101318161010d565b92915050565b5f6020828403121561014c5761014b6100d9565b5b5f61015984828501610123565b91505092915050565b5f82825260208201905092915050565b7f475541524449414e5f5a45524f000000000000000000000000000000000000005f82015250565b5f6101a6600d83610162565b91506101b182610172565b602082019050919050565b5f6020820190508181035f8301526101d38161019a565b9050919050565b6080516108876101f95f395f81816101cb01526102aa01526108875ff3fe608060405234801561000f575f80fd5b5060043610610055575f3560e01c8063122f9d4314610059578063158ef93e14610077578063452a932014610095578063c4d66de8146100b3578063f851a440146100cf575b5f80fd5b6100616100ed565b60405161006e91906104e4565b60405180910390f35b61007f6101b9565b60405161008c919061051e565b60405180910390f35b61009d6101c9565b6040516100aa91906105b1565b60405180910390f35b6100cd60048036038101906100c89190610609565b6101ed565b005b6100d7610435565b6040516100e49190610643565b60405180910390f35b60605f60019054906101000a900473ffffffffffffffffffffffffffffffffffffffff1673ffffffffffffffffffffffffffffffffffffffff163373ffffffffffffffffffffffffffffffffffffffff161461017e576040517f08c379a0000000000000000000000000000000000000000000000000000000008152600401610175906106a6565b60405180910390fd5b6040518060400160405280601281526020017f596f7520617265207468652061646d696e210000000000000000000000000000815250905090565b5f8054906101000a900460ff1681565b7f000000000000000000000000000000000000000000000000000000000000000081565b5f8054906101000a900460ff161561023a576040517f08c379a00000000000000000000000000000000000000000000000000000000081526004016102319061070e565b60405180910390fd5b5f73ffffffffffffffffffffffffffffffffffffffff168173ffffffffffffffffffffffffffffffffffffffff16036102a8576040517f08c379a000000000000000000000000000000000000000000000000000000000815260040161029f90610776565b60405180910390fd5b7f000000000000000000000000000000000000000000000000000000000000000073ffffffffffffffffffffffffffffffffffffffff166339323400336040518263ffffffff1660e01b81526004016103019190610643565b602060405180830381865afa15801561031c573d5f803e3d5ffd5b505050506040513d601f19601f8201168201806040525081019061034091906107be565b61037f576040517f08c379a000000000000000000000000000000000000000000000000000000000815260040161037690610833565b60405180910390fd5b805f60016101000a81548173ffffffffffffffffffffffffffffffffffffffff021916908373ffffffffffffffffffffffffffffffffffffffff16021790555060015f806101000a81548160ff0219169083151502179055503373ffffffffffffffffffffffffffffffffffffffff168173ffffffffffffffffffffffffffffffffffffffff167f3cd5ec01b1ae7cfec6ca1863e2cd6aa25d6d1702825803ff2b7cc95010fffdc260405160405180910390a350565b5f60019054906101000a900473ffffffffffffffffffffffffffffffffffffffff1681565b5f81519050919050565b5f82825260208201905092915050565b5f5b83811015610491578082015181840152602081019050610476565b5f8484015250505050565b5f601f19601f8301169050919050565b5f6104b68261045a565b6104c08185610464565b93506104d0818560208601610474565b6104d98161049c565b840191505092915050565b5f6020820190508181035f8301526104fc81846104ac565b905092915050565b5f8115159050919050565b61051881610504565b82525050565b5f6020820190506105315f83018461050f565b92915050565b5f73ffffffffffffffffffffffffffffffffffffffff82169050919050565b5f819050919050565b5f61057961057461056f84610537565b610556565b610537565b9050919050565b5f61058a8261055f565b9050919050565b5f61059b82610580565b9050919050565b6105ab81610591565b82525050565b5f6020820190506105c45f8301846105a2565b92915050565b5f80fd5b5f6105d882610537565b9050919050565b6105e8816105ce565b81146105f2575f80fd5b50565b5f81359050610603816105df565b92915050565b5f6020828403121561061e5761061d6105ca565b5b5f61062b848285016105f5565b91505092915050565b61063d816105ce565b82525050565b5f6020820190506106565f830184610634565b92915050565b7f4e4f545f41444d494e00000000000000000000000000000000000000000000005f82015250565b5f610690600983610464565b915061069b8261065c565b602082019050919050565b5f6020820190508181035f8301526106bd81610684565b9050919050565b7f414c52454144595f494e495449414c495a4544000000000000000000000000005f82015250565b5f6106f8601383610464565b9150610703826106c4565b602082019050919050565b5f6020820190508181035f830152610725816106ec565b9050919050565b7f41444d494e5f5a45524f000000000000000000000000000000000000000000005f82015250565b5f610760600a83610464565b915061076b8261072c565b602082019050919050565b5f6020820190508181035f83015261078d81610754565b9050919050565b61079d81610504565b81146107a7575f80fd5b50565b5f815190506107b881610794565b92915050565b5f602082840312156107d3576107d26105ca565b5b5f6107e0848285016107aa565b91505092915050565b7f4e4f545f415050524f56454400000000000000000000000000000000000000005f82015250565b5f61081d600c83610464565b9150610828826107e9565b602082019050919050565b5f6020820190508181035f83015261084a81610811565b905091905056fea26469706673582212201b1e1481c0a13fe797dbd30480a3cfa362a6dedc2e25ea13c2cde20dced6b77a64736f6c63430008140033",
					"opcodes": "PUSH1 0xA0 PUSH1 0x40 MSTORE CALLVALUE DUP1 ISZERO PUSH2 0xF JUMPI PUSH0 DUP1 REVERT JUMPDEST POP PUSH1 0x40 MLOAD PUSH2 0xA80 CODESIZE SUB DUP1 PUSH2 0xA80 DUP4 CODECOPY DUP2 DUP2 ADD PUSH1 0x40 MSTORE DUP2 ADD SWAP1 PUSH2 0x31 SWAP2 SWAP1 PUSH2 0x137 JUMP JUMPDEST PUSH0 PUSH20 0xFFFFFFFFFFFFFFFFFFFFFFFFFFFFFFFFFFFFFFFF AND DUP2 PUSH20 0xFFFFFFFFFFFFFFFFFFFFFFFFFFFFFFFFFFFFFFFF AND SUB PUSH2 0x9F JUMPI PUSH1 0x40 MLOAD PUSH32 0x8C379A000000000000000000000000000000000000000000000000000000000 DUP2 MSTORE PUSH1 0x4 ADD PUSH2 0x96 SWAP1 PUSH2 0x1BC JUMP JUMPDEST PUSH1 0x40 MLOAD DUP1 SWAP2 SUB SWAP1 REVERT JUMPDEST DUP1 PUSH20 0xFFFFFFFFFFFFFFFFFFFFFFFFFFFFFFFFFFFFFFFF AND PUSH1 0x80 DUP2 PUSH20 0xFFFFFFFFFFFFFFFFFFFFFFFFFFFFFFFFFFFFFFFF AND DUP2 MSTORE POP POP POP PUSH2 0x1DA JUMP JUMPDEST PUSH0 DUP1 REVERT JUMPDEST PUSH0 PUSH20 0xFFFFFFFFFFFFFFFFFFFFFFFFFFFFFFFFFFFFFFFF DUP3 AND SWAP1 POP SWAP2 SWAP1 POP JUMP JUMPDEST PUSH0 PUSH2 0x106 DUP3 PUSH2 0xDD JUMP JUMPDEST SWAP1 POP SWAP2 SWAP1 POP JUMP JUMPDEST PUSH2 0x116 DUP2 PUSH2 0xFC JUMP JUMPDEST DUP2 EQ PUSH2 0x120 JUMPI PUSH0 DUP1 REVERT JUMPDEST POP JUMP JUMPDEST PUSH0 DUP2 MLOAD SWAP1 POP PUSH2 0x131 DUP2 PUSH2 0x10D JUMP JUMPDEST SWAP3 SWAP2 POP POP JUMP JUMPDEST PUSH0 PUSH1 0x20 DUP3 DUP5 SUB SLT ISZERO PUSH2 0x14C JUMPI PUSH2 0x14B PUSH2 0xD9 JUMP JUMPDEST JUMPDEST PUSH0 PUSH2 0x159 DUP5 DUP3 DUP6 ADD PUSH2 0x123 JUMP JUMPDEST SWAP2 POP POP SWAP3 SWAP2 POP POP JUMP JUMPDEST PUSH0 DUP3 DUP3 MSTORE PUSH1 0x20 DUP3 ADD SWAP1 POP SWAP3 SWAP2 POP POP JUMP JUMPDEST PUSH32 0x475541524449414E5F5A45524F00000000000000000000000000000000000000 PUSH0 DUP3 ADD MSTORE POP JUMP JUMPDEST PUSH0 PUSH2 0x1A6 PUSH1 0xD DUP4 PUSH2 0x162 JUMP JUMPDEST SWAP2 POP PUSH2 0x1B1 DUP3 PUSH2 0x172 JUMP JUMPDEST PUSH1 0x20 DUP3 ADD SWAP1 POP SWAP2 SWAP1 POP JUMP JUMPDEST PUSH0 PUSH1 0x20 DUP3 ADD SWAP1 POP DUP2 DUP2 SUB PUSH0 DUP4 ADD MSTORE PUSH2 0x1D3 DUP2 PUSH2 0x19A JUMP JUMPDEST SWAP1 POP SWAP2 SWAP1 POP JUMP JUMPDEST PUSH1 0x80 MLOAD PUSH2 0x887 PUSH2 0x1F9 PUSH0 CODECOPY PUSH0 DUP2 DUP2 PUSH2 0x1CB ADD MSTORE PUSH2 0x2AA ADD MSTORE PUSH2 0x887 PUSH0 RETURN INVALID PUSH1 0x80 PUSH1 0x40 MSTORE CALLVALUE DUP1 ISZERO PUSH2 0xF JUMPI PUSH0 DUP1 REVERT JUMPDEST POP PUSH1 0x4 CALLDATASIZE LT PUSH2 0x55 JUMPI PUSH0 CALLDATALOAD PUSH1 0xE0 SHR DUP1 PUSH4 0x122F9D43 EQ PUSH2 0x59 JUMPI DUP1 PUSH4 0x158EF93E EQ PUSH2 0x77 JUMPI DUP1 PUSH4 0x452A9320 EQ PUSH2 0x95 JUMPI DUP1 PUSH4 0xC4D66DE8 EQ PUSH2 0xB3 JUMPI DUP1 PUSH4 0xF851A440 EQ PUSH2 0xCF JUMPI JUMPDEST PUSH0 DUP1 REVERT JUMPDEST PUSH2 0x61 PUSH2 0xED JUMP JUMPDEST PUSH1 0x40 MLOAD PUSH2 0x6E SWAP2 SWAP1 PUSH2 0x4E4 JUMP JUMPDEST PUSH1 0x40 MLOAD DUP1 SWAP2 SUB SWAP1 RETURN JUMPDEST PUSH2 0x7F PUSH2 0x1B9 JUMP JUMPDEST PUSH1 0x40 MLOAD PUSH2 0x8C SWAP2 SWAP1 PUSH2 0x51E JUMP JUMPDEST PUSH1 0x40 MLOAD DUP1 SWAP2 SUB SWAP1 RETURN JUMPDEST PUSH2 0x9D PUSH2 0x1C9 JUMP JUMPDEST PUSH1 0x40 MLOAD PUSH2 0xAA SWAP2 SWAP1 PUSH2 0x5B1 JUMP JUMPDEST PUSH1 0x40 MLOAD DUP1 SWAP2 SUB SWAP1 RETURN JUMPDEST PUSH2 0xCD PUSH1 0x4 DUP1 CALLDATASIZE SUB DUP2 ADD SWAP1 PUSH2 0xC8 SWAP2 SWAP1 PUSH2 0x609 JUMP JUMPDEST PUSH2 0x1ED JUMP JUMPDEST STOP JUMPDEST PUSH2 0xD7 PUSH2 0x435 JUMP JUMPDEST PUSH1 0x40 MLOAD PUSH2 0xE4 SWAP2 SWAP1 PUSH2 0x643 JUMP JUMPDEST PUSH1 0x40 MLOAD DUP1 SWAP2 SUB SWAP1 RETURN JUMPDEST PUSH1 0x60 PUSH0 PUSH1 0x1 SWAP1 SLOAD SWAP1 PUSH2 0x100 EXP SWAP1 DIV PUSH20 0xFFFFFFFFFFFFFFFFFFFFFFFFFFFFFFFFFFFFFFFF AND PUSH20 0xFFFFFFFFFFFFFFFFFFFFFFFFFFFFFFFFFFFFFFFF AND CALLER PUSH20 0xFFFFFFFFFFFFFFFFFFFFFFFFFFFFFFFFFFFFFFFF AND EQ PUSH2 0x17E JUMPI PUSH1 0x40 MLOAD PUSH32 0x8C379A000000000000000000000000000000000000000000000000000000000 DUP2 MSTORE PUSH1 0x4 ADD PUSH2 0x175 SWAP1 PUSH2 0x6A6 JUMP JUMPDEST PUSH1 0x40 MLOAD DUP1 SWAP2 SUB SWAP1 REVERT JUMPDEST PUSH1 0x40 MLOAD DUP1 PUSH1 0x40 ADD PUSH1 0x40 MSTORE DUP1 PUSH1 0x12 DUP2 MSTORE PUSH1 0x20 ADD PUSH32 0x596F7520617265207468652061646D696E210000000000000000000000000000 DUP2 MSTORE POP SWAP1 POP SWAP1 JUMP JUMPDEST PUSH0 DUP1 SLOAD SWAP1 PUSH2 0x100 EXP SWAP1 DIV PUSH1 0xFF AND DUP2 JUMP JUMPDEST PUSH32 0x0 DUP2 JUMP JUMPDEST PUSH0 DUP1 SLOAD SWAP1 PUSH2 0x100 EXP SWAP1 DIV PUSH1 0xFF AND ISZERO PUSH2 0x23A JUMPI PUSH1 0x40 MLOAD PUSH32 0x8C379A000000000000000000000000000000000000000000000000000000000 DUP2 MSTORE PUSH1 0x4 ADD PUSH2 0x231 SWAP1 PUSH2 0x70E JUMP JUMPDEST PUSH1 0x40 MLOAD DUP1 SWAP2 SUB SWAP1 REVERT JUMPDEST PUSH0 PUSH20 0xFFFFFFFFFFFFFFFFFFFFFFFFFFFFFFFFFFFFFFFF AND DUP2 PUSH20 0xFFFFFFFFFFFFFFFFFFFFFFFFFFFFFFFFFFFFFFFF AND SUB PUSH2 0x2A8 JUMPI PUSH1 0x40 MLOAD PUSH32 0x8C379A000000000000000000000000000000000000000000000000000000000 DUP2 MSTORE PUSH1 0x4 ADD PUSH2 0x29F SWAP1 PUSH2 0x776 JUMP JUMPDEST PUSH1 0x40 MLOAD DUP1 SWAP2 SUB SWAP1 REVERT JUMPDEST PUSH32 0x0 PUSH20 0xFFFFFFFFFFFFFFFFFFFFFFFFFFFFFFFFFFFFFFFF AND PUSH4 0x39323400 CALLER PUSH1 0x40 MLOAD DUP3 PUSH4 0xFFFFFFFF AND PUSH1 0xE0 SHL DUP2 MSTORE PUSH1 0x4 ADD PUSH2 0x301 SWAP2 SWAP1 PUSH2 0x643 JUMP JUMPDEST PUSH1 0x20 PUSH1 0x40 MLOAD DUP1 DUP4 SUB DUP2 DUP7 GAS STATICCALL ISZERO DUP1 ISZERO PUSH2 0x31C JUMPI RETURNDATASIZE PUSH0 DUP1 RETURNDATACOPY RETURNDATASIZE PUSH0 REVERT JUMPDEST POP POP POP POP PUSH1 0x40 MLOAD RETURNDATASIZE PUSH1 0x1F NOT PUSH1 0x1F DUP3 ADD AND DUP3 ADD DUP1 PUSH1 0x40 MSTORE POP DUP2 ADD SWAP1 PUSH2 0x340 SWAP2 SWAP1 PUSH2 0x7BE JUMP JUMPDEST PUSH2 0x37F JUMPI PUSH1 0x40 MLOAD PUSH32 0x8C379A000000000000000000000000000000000000000000000000000000000 DUP2 MSTORE PUSH1 0x4 ADD PUSH2 0x376 SWAP1 PUSH2 0x833 JUMP JUMPDEST PUSH1 0x40 MLOAD DUP1 SWAP2 SUB SWAP1 REVERT JUMPDEST DUP1 PUSH0 PUSH1 0x1 PUSH2 0x100 EXP DUP2 SLOAD DUP2 PUSH20 0xFFFFFFFFFFFFFFFFFFFFFFFFFFFFFFFFFFFFFFFF MUL NOT AND SWAP1 DUP4 PUSH20 0xFFFFFFFFFFFFFFFFFFFFFFFFFFFFFFFFFFFFFFFF AND MUL OR SWAP1 SSTORE POP PUSH1 0x1 PUSH0 DUP1 PUSH2 0x100 EXP DUP2 SLOAD DUP2 PUSH1 0xFF MUL NOT AND SWAP1 DUP4 ISZERO ISZERO MUL OR SWAP1 SSTORE POP CALLER PUSH20 0xFFFFFFFFFFFFFFFFFFFFFFFFFFFFFFFFFFFFFFFF AND DUP2 PUSH20 0xFFFFFFFFFFFFFFFFFFFFFFFFFFFFFFFFFFFFFFFF AND PUSH32 0x3CD5EC01B1AE7CFEC6CA1863E2CD6AA25D6D1702825803FF2B7CC95010FFFDC2 PUSH1 0x40 MLOAD PUSH1 0x40 MLOAD DUP1 SWAP2 SUB SWAP1 LOG3 POP JUMP JUMPDEST PUSH0 PUSH1 0x1 SWAP1 SLOAD SWAP1 PUSH2 0x100 EXP SWAP1 DIV PUSH20 0xFFFFFFFFFFFFFFFFFFFFFFFFFFFFFFFFFFFFFFFF AND DUP2 JUMP JUMPDEST PUSH0 DUP2 MLOAD SWAP1 POP SWAP2 SWAP1 POP JUMP JUMPDEST PUSH0 DUP3 DUP3 MSTORE PUSH1 0x20 DUP3 ADD SWAP1 POP SWAP3 SWAP2 POP POP JUMP JUMPDEST PUSH0 JUMPDEST DUP4 DUP2 LT ISZERO PUSH2 0x491 JUMPI DUP1 DUP3 ADD MLOAD DUP2 DUP5 ADD MSTORE PUSH1 0x20 DUP2 ADD SWAP1 POP PUSH2 0x476 JUMP JUMPDEST PUSH0 DUP5 DUP5 ADD MSTORE POP POP POP POP JUMP JUMPDEST PUSH0 PUSH1 0x1F NOT PUSH1 0x1F DUP4 ADD AND SWAP1 POP SWAP2 SWAP1 POP JUMP JUMPDEST PUSH0 PUSH2 0x4B6 DUP3 PUSH2 0x45A JUMP JUMPDEST PUSH2 0x4C0 DUP2 DUP6 PUSH2 0x464 JUMP JUMPDEST SWAP4 POP PUSH2 0x4D0 DUP2 DUP6 PUSH1 0x20 DUP7 ADD PUSH2 0x474 JUMP JUMPDEST PUSH2 0x4D9 DUP2 PUSH2 0x49C JUMP JUMPDEST DUP5 ADD SWAP2 POP POP SWAP3 SWAP2 POP POP JUMP JUMPDEST PUSH0 PUSH1 0x20 DUP3 ADD SWAP1 POP DUP2 DUP2 SUB PUSH0 DUP4 ADD MSTORE PUSH2 0x4FC DUP2 DUP5 PUSH2 0x4AC JUMP JUMPDEST SWAP1 POP SWAP3 SWAP2 POP POP JUMP JUMPDEST PUSH0 DUP2 ISZERO ISZERO SWAP1 POP SWAP2 SWAP1 POP JUMP JUMPDEST PUSH2 0x518 DUP2 PUSH2 0x504 JUMP JUMPDEST DUP3 MSTORE POP POP JUMP JUMPDEST PUSH0 PUSH1 0x20 DUP3 ADD SWAP1 POP PUSH2 0x531 PUSH0 DUP4 ADD DUP5 PUSH2 0x50F JUMP JUMPDEST SWAP3 SWAP2 POP POP JUMP JUMPDEST PUSH0 PUSH20 0xFFFFFFFFFFFFFFFFFFFFFFFFFFFFFFFFFFFFFFFF DUP3 AND SWAP1 POP SWAP2 SWAP1 POP JUMP JUMPDEST PUSH0 DUP2 SWAP1 POP SWAP2 SWAP1 POP JUMP JUMPDEST PUSH0 PUSH2 0x579 PUSH2 0x574 PUSH2 0x56F DUP5 PUSH2 0x537 JUMP JUMPDEST PUSH2 0x556 JUMP JUMPDEST PUSH2 0x537 JUMP JUMPDEST SWAP1 POP SWAP2 SWAP1 POP JUMP JUMPDEST PUSH0 PUSH2 0x58A DUP3 PUSH2 0x55F JUMP JUMPDEST SWAP1 POP SWAP2 SWAP1 POP JUMP JUMPDEST PUSH0 PUSH2 0x59B DUP3 PUSH2 0x580 JUMP JUMPDEST SWAP1 POP SWAP2 SWAP1 POP JUMP JUMPDEST PUSH2 0x5AB DUP2 PUSH2 0x591 JUMP JUMPDEST DUP3 MSTORE POP POP JUMP JUMPDEST PUSH0 PUSH1 0x20 DUP3 ADD SWAP1 POP PUSH2 0x5C4 PUSH0 DUP4 ADD DUP5 PUSH2 0x5A2 JUMP JUMPDEST SWAP3 SWAP2 POP POP JUMP JUMPDEST PUSH0 DUP1 REVERT JUMPDEST PUSH0 PUSH2 0x5D8 DUP3 PUSH2 0x537 JUMP JUMPDEST SWAP1 POP SWAP2 SWAP1 POP JUMP JUMPDEST PUSH2 0x5E8 DUP2 PUSH2 0x5CE JUMP JUMPDEST DUP2 EQ PUSH2 0x5F2 JUMPI PUSH0 DUP1 REVERT JUMPDEST POP JUMP JUMPDEST PUSH0 DUP2 CALLDATALOAD SWAP1 POP PUSH2 0x603 DUP2 PUSH2 0x5DF JUMP JUMPDEST SWAP3 SWAP2 POP POP JUMP JUMPDEST PUSH0 PUSH1 0x20 DUP3 DUP5 SUB SLT ISZERO PUSH2 0x61E JUMPI PUSH2 0x61D PUSH2 0x5CA JUMP JUMPDEST JUMPDEST PUSH0 PUSH2 0x62B DUP5 DUP3 DUP6 ADD PUSH2 0x5F5 JUMP JUMPDEST SWAP2 POP POP SWAP3 SWAP2 POP POP JUMP JUMPDEST PUSH2 0x63D DUP2 PUSH2 0x5CE JUMP JUMPDEST DUP3 MSTORE POP POP JUMP JUMPDEST PUSH0 PUSH1 0x20 DUP3 ADD SWAP1 POP PUSH2 0x656 PUSH0 DUP4 ADD DUP5 PUSH2 0x634 JUMP JUMPDEST SWAP3 SWAP2 POP POP JUMP JUMPDEST PUSH32 0x4E4F545F41444D494E0000000000000000000000000000000000000000000000 PUSH0 DUP3 ADD MSTORE POP JUMP JUMPDEST PUSH0 PUSH2 0x690 PUSH1 0x9 DUP4 PUSH2 0x464 JUMP JUMPDEST SWAP2 POP PUSH2 0x69B DUP3 PUSH2 0x65C JUMP JUMPDEST PUSH1 0x20 DUP3 ADD SWAP1 POP SWAP2 SWAP1 POP JUMP JUMPDEST PUSH0 PUSH1 0x20 DUP3 ADD SWAP1 POP DUP2 DUP2 SUB PUSH0 DUP4 ADD MSTORE PUSH2 0x6BD DUP2 PUSH2 0x684 JUMP JUMPDEST SWAP1 POP SWAP2 SWAP1 POP JUMP JUMPDEST PUSH32 0x414C52454144595F494E495449414C495A454400000000000000000000000000 PUSH0 DUP3 ADD MSTORE POP JUMP JUMPDEST PUSH0 PUSH2 0x6F8 PUSH1 0x13 DUP4 PUSH2 0x464 JUMP JUMPDEST SWAP2 POP PUSH2 0x703 DUP3 PUSH2 0x6C4 JUMP JUMPDEST PUSH1 0x20 DUP3 ADD SWAP1 POP SWAP2 SWAP1 POP JUMP JUMPDEST PUSH0 PUSH1 0x20 DUP3 ADD SWAP1 POP DUP2 DUP2 SUB PUSH0 DUP4 ADD MSTORE PUSH2 0x725 DUP2 PUSH2 0x6EC JUMP JUMPDEST SWAP1 POP SWAP2 SWAP1 POP JUMP JUMPDEST PUSH32 0x41444D494E5F5A45524F00000000000000000000000000000000000000000000 PUSH0 DUP3 ADD MSTORE POP JUMP JUMPDEST PUSH0 PUSH2 0x760 PUSH1 0xA DUP4 PUSH2 0x464 JUMP JUMPDEST SWAP2 POP PUSH2 0x76B DUP3 PUSH2 0x72C JUMP JUMPDEST PUSH1 0x20 DUP3 ADD SWAP1 POP SWAP2 SWAP1 POP JUMP JUMPDEST PUSH0 PUSH1 0x20 DUP3 ADD SWAP1 POP DUP2 DUP2 SUB PUSH0 DUP4 ADD MSTORE PUSH2 0x78D DUP2 PUSH2 0x754 JUMP JUMPDEST SWAP1 POP SWAP2 SWAP1 POP JUMP JUMPDEST PUSH2 0x79D DUP2 PUSH2 0x504 JUMP JUMPDEST DUP2 EQ PUSH2 0x7A7 JUMPI PUSH0 DUP1 REVERT JUMPDEST POP JUMP JUMPDEST PUSH0 DUP2 MLOAD SWAP1 POP PUSH2 0x7B8 DUP2 PUSH2 0x794 JUMP JUMPDEST SWAP3 SWAP2 POP POP JUMP JUMPDEST PUSH0 PUSH1 0x20 DUP3 DUP5 SUB SLT ISZERO PUSH2 0x7D3 JUMPI PUSH2 0x7D2 PUSH2 0x5CA JUMP JUMPDEST JUMPDEST PUSH0 PUSH2 0x7E0 DUP5 DUP3 DUP6 ADD PUSH2 0x7AA JUMP JUMPDEST SWAP2 POP POP SWAP3 SWAP2 POP POP JUMP JUMPDEST PUSH32 0x4E4F545F415050524F5645440000000000000000000000000000000000000000 PUSH0 DUP3 ADD MSTORE POP JUMP JUMPDEST PUSH0 PUSH2 0x81D PUSH1 0xC DUP4 PUSH2 0x464 JUMP JUMPDEST SWAP2 POP PUSH2 0x828 DUP3 PUSH2 0x7E9 JUMP JUMPDEST PUSH1 0x20 DUP3 ADD SWAP1 POP SWAP2 SWAP1 POP JUMP JUMPDEST PUSH0 PUSH1 0x20 DUP3 ADD SWAP1 POP DUP2 DUP2 SUB PUSH0 DUP4 ADD MSTORE PUSH2 0x84A DUP2 PUSH2 0x811 JUMP JUMPDEST SWAP1 POP SWAP2 SWAP1 POP JUMP INVALID LOG2 PUSH5 0x6970667358 0x22 SLT KECCAK256 SHL 0x1E EQ DUP2 0xC0 LOG1 EXTCODEHASH 0xE7 SWAP8 0xDB 0xD3 DIV DUP1 LOG3 0xCF LOG3 PUSH3 0xA6DEDC 0x2E 0x25 0xEA SGT 0xC2 0xCD 0xE2 0xD 0xCE 0xD6 0xB7 PUSH27 0x64736F6C6343000814003300000000000000000000000000000000 "
				},
				"gasEstimates": {
					"creation": {
						"codeDepositCost": "436600",
						"executionCost": "infinite",
						"totalCost": "infinite"
					},
					"external": {
						"admin()": "2624",
						"adminOnlyFunction()": "infinite",
						"guardian()": "infinite",
						"initialize(address)": "infinite",
						"initialized()": "2463"
					}
				},
				"methodIdentifiers": {
					"admin()": "f851a440",
					"adminOnlyFunction()": "122f9d43",
					"guardian()": "452a9320",
					"initialize(address)": "c4d66de8",
					"initialized()": "158ef93e"
				}
			},
			"storageLayout": {
				"storage": [
					{
						"astId": 134,
						"contract": "contracts/GuardedInit.sol:GuardedInit",
						"label": "initialized",
						"offset": 0,
						"slot": "0",
						"type": "t_bool"
					},
					{
						"astId": 136,
						"contract": "contracts/GuardedInit.sol:GuardedInit",
						"label": "admin",
						"offset": 1,
						"slot": "0",
						"type": "t_address"
					}
				],
				"types": {
					"t_address": {
						"encoding": "inplace",
						"label": "address",
						"numberOfBytes": "20"
					},
					"t_bool": {
						"encoding": "inplace",
						"label": "bool",
						"numberOfBytes": "1"
					}
				}
			},
			"userdoc": {
				"kind": "user",
				"methods": {
					"adminOnlyFunction()": {
						"notice": "Example admin-only function (just to show the impact)"
					},
					"constructor": {
						"notice": "Constructor sets the guardian contract (IMMUTABLE)"
					},
					"initialize(address)": {
						"notice": "Initialize the contract and set admin (PROTECTED VERSION)"
					}
				},
				"notice": "PROTECTED: Only guardian-approved addresses can initialize",
				"version": 1
			}
		}
	}
}